S00F000061726475696E6F2E7372656323
S11300000C9435000C945D000C945D000C945D0020
S11300100C94B80B0C945D000C945D000C945D0082
S11300200C945D000C945D000C945D000C94C00B6A
S11300300C945D000C945D000C945D000C945D00C8
S11300400C9443020C945D000C9411040C9443042E
S11300500C945D000C945D000C945D000C945D00A8
S11300600C945D000C945D00690411241FBECFEF55
S1130070D8E0DEBFCDBF13E0A0E0B1E0E6EEFDE1E5
S113008002C005900D92AA37B107D9F727E0AAE775
S1130090B3E001C01D92AC34B207E1F710E0C5E350
S11300A0D0E004C02197FE010E940A0CC433D1079A
S11300B0C9F70E9417020C94F10E0C94B40B0000C3
S11300C02F923F924F925F926F927F928F929F9264
S11300D0AF92BF92CF92DF92EF92FF920F931F9352
S11300E0CF93DF93E42FF52F419050804F925F928E
S11300F0E42FF52F4DB65EB6419250820C948000E9
S1130100E62FF72F419050804DBE5EBE5F904F901A
S1130110E62FF72F41925082DF91CF911F910F91DB
S1130120FF90EF90DF90CF90BF90AF909F908F9013
S11301307F906F905F904F903F902F900C942A0681
S1130140E62FF72F419150814DBF5EBF0C943306CB
S11301502F923F924F925F926F927F928F929F92D3
S1130160AF92BF92CF92DF92EF92FF920F931F93C1
S1130170CF93DF93E42FF52F419050804F925F92FD
S1130180E42FF52F4DB65EB6419250820C94A00038
S1130190E82FF92F419150814DBF5EBFE62FF72F15
S11301A00994000080914707909148079093440771
S11301B080934307909342078093410790934A07A3
S11301C08093490708958091430790914407909341
S11301D04607809345070895809145079091460707
S11301E090933E0780933D07089580914107909135
S11301F0420790933C0780933B07089580914907F9
S113020090914A0790933A07809339070895809113
S1130210390790913A079093400780933F070895D8
S113022080913D0790913E078130910591F4809132
S11302303B0790913C070197D9F480913F07909137
S1130240400781309105A1F49093380780933707D4
S11302500FC0019669F480913B0790913C07019689
S113026039F480913F07909140078F3F980761F3DD
S1130270089580E00E94FB0580913707909138072C
S11302802EE731E08130910521F0019651F12BE701
S113029031E08091000190910101A0910201B0919F
S11302A003010196A11DB11D8093000190930101EA
S11302B0A0930201B09303013F932F93BF93AF9395
S11302C09F938F9386E891E09F938F930E94DF0121
S11302D08DB79EB708960FB6F8949EBF0FBE8DBF1C
S11302E0089521E831E0D5CF0E943805309922C025
S11302F08EE00E94C8028233910584F481E090E08C
S1130300909348078093470783E991E09F938F93E5
S11303100E94DF010F900F900C944005883C9105DA
S1130320DCF78FEF9FEF90934807809347078FE99F
S113033091E0ECCF08958DEA91E09F938F930E9412
S1130340DF0180EC91E09F938F930E94DF010F9077
S11303500F900F900F900C94E10585ED91E09F9321
S11303608F930E94DF0188EE91E09F938F930E9408
S1130370DF010F900F900F900F900C94E1058DEF1B
S113038091E09F938F930E94DF010E94D2000E940C
S1130390E3000E94EC000E94F5000E94FE000E940F
S11303A007010E94100180E192E09F938F930E94C5
S11303B0DF010F900F900F900F900C94E105CF93F5
S11303C0DF93CDB7DEB7C058D1090FB6F894DEBFBE
S11303D00FBECDBF9E012B573F4FF9014191519163
S11303E09F0160E870E0CE0101960E94100CBE01EE
S11303F06F5F7F4F8AE996E00E94D204C058DF4FB6
S11304000FB6F894DEBF0FBECDBFDF91CF91089534
S113041026E040E855E260E070E08AE996E00E9458
S1130420AF0360E472E48FE090E00C94DA0481E0BE
S113043088B992E09093680080936C008FEF8CBB36
S113044078940E948D020E94080285E292E09F93B4
S11304508F930E94DF0187E392E09F938F930E9422
S1130460DF0186E292E09F938F930E94DF0180E098
S11304700E944A050F900F900F900F900F900F90CD
S113048090E080E008951F920F920FB60F9211240E
S11304902F933F938F939F93AF93BF938091920633
S11304A090919306A0919406B0919506309191068F
S11304B023E0230F2D3758F50196A11DB11D20937C
S11304C091068093920690939306A0939406B0931A
S11304D095068091960690919706A0919806B09102
S11304E099060196A11DB11D8093960690939706D7
S11304F0A0939806B0939906BF91AF919F918F9165
S11305003F912F910F900FBE0F901F90189526E8E2
S1130510230F0296A11DB11DD2CF789484B58260B9
S113052084BD84B5816084BD85B5826085BD85B593
S1130530816085BDEEE6F0E0808181608083E1E842
S1130540F0E010828081826080838081816080837A
S1130550E0E8F0E0808181608083E1EBF0E080817D
S113056084608083E0EBF0E0808181608083EAE74F
S1130570F0E08081846080838081826080838081D8
S1130580816080838081806880831092C100089597
S11305908E3008F08E5020917A0190E4299F9001CA
S11305A011248770822B80937C0080917A00806470
S11305B080937A0080917A0086FDFCCF8091780048
S11305C0909179000895FC01918D228D892F90E0FE
S11305D0805C9F4F821B91098F7399270895FC01BA
S11305E0918D828D981731F0828DE80FF11D858DE4
S11305F090E008958FEF9FEF0895FC01918D828D17
S1130600981761F0A28DAE0FBF2FB11D5D968C912E
S1130610928D9F5F9F73928F90E008958FEF9FEF6D
S11306200895FC01538D448D252F30E0842F90E0F4
S1130630821B930B541710F0CF96089501970895D9
S1130640FC01A48DA80FB92FB11DA35ABF4F2C9143
S1130650848D90E001968F739927848FA689B7893A
S11306602C93A089B1898C91837080648C93938D31
S1130670848D981306C00288F389E02D80818F7DD4
S113068080830895CF93DF93EC01888D8823B9F09C
S1130690AA89BB89E889F9898C9185FD03C0808189
S11306A086FD0DC00FB607FCF7CF8C9185FFF2CF06
S11306B0808185FFEDCFCE010E942003E9CFDF9139
S11306C0CF910895EF92FF920F931F93CF93DF93EF
S11306D0EC0181E0888F9B8D8C8D98131AC0E8897A
S11306E0F989808185FF15C09FB7F894EE89FF8949
S11306F06083E889F98980818370806480839FBFE7
S113070081E090E0DF91CF911F910F91FF90EF90E6
S11307100895F62E0B8D10E00F5F1F4F0F731127F6
S1130720E02E8C8D8E110CC00FB607FCFACFE88931
S1130730F989808185FFF5CFCE010E942003F1CF96
S1130740EB8DEC0FFD2FF11DE35AFF4FF0829FB7A5
S1130750F8940B8FEA89FB8980818062CFCFCF9296
S1130760DF92EF92FF921F93CF93DF93EC016A0124
S11307707B01122FE889F98982E08083C11481EE1C
S1130780D806E104F104A1F060E079E08DE390E0A3
S1130790A70196010E94E80B215031094109510932
S11307A05695479537952795211580E1380798F098
S11307B0E889F989108260E874E88EE190E0A70185
S11307C096010E94E80B21503109410951095695BF
S11307D0479537952795EC85FD853083EE85FF8514
S11307E02083188EEC89FD891083EA89FB89808136
S11307F080618083EA89FB89808188608083EA89BB
S1130800FB89808180688083EA89FB8980818F7D70
S11308108083DF91CF911F91FF90EF90DF90CF9075
S113082008951F920F920FB60F9211242F938F9356
S11308309F93EF93FF93E091AA06F091AB0680811A
S1130840E091B006F091B10682FD1BC090818091C9
S1130850B3068F5F8F732091B406821741F0E09145
S1130860B306F0E0E656F94F958F8093B306FF91F7
S1130870EF919F918F912F910F900FBE0F901F902A
S113088018958081F4CF1F920F920FB60F92112406
S11308902F933F934F935F936F937F938F939F9384
S11308A0AF93BF93EF93FF938AE996E00E942003EE
S11308B0FF91EF91BF91AF919F918F917F916F9134
S11308C05F914F913F912F910F900FBE0F901F900A
S11308D01895EAE9F6E01382128288EE93E0A0E02C
S11308E0B0E084839583A683B7838CE693E09183F9
S11308F0808385EC90E09587848784EC90E09787EB
S1130900868780EC90E0918B808B81EC90E0938BD8
S1130910828B82EC90E0958B848B86EC90E0978BB5
S1130920868B118E128E138E148E0895AF92BF9201
S1130930CF92DF92EF92FF920F931F93CF93DF93A7
S11309406C017B018B01040F151FEB015E01AE18D6
S1130950BF08C017D10759F06991D601ED91FC91F8
S11309600190F081E02DC6010995892B79F7C50125
S1130970DF91CF911F910F91FF90EF90DF90CF9077
S1130980BF90AF900895FB0101900020E9F73197E3
S1130990AF01461B570BDC01ED91FC910280F38102
S11309A0E02D09946115710511F00C94C30490E0D5
S11309B080E00895109281001092800010928200CD
S11309C01092850010928400611520E17207810560
S11309D09105A0F4E4E0660F771FEA95E1F7615012
S11309E0710981E092E096BB90936F007093890047
S11309F0609388008860809381000895611520E8E1
S1130A0072078105910530F4660F771F61507109F3
S1130A1082E0E8CF6C3F2FEF720723E08207910555
S1130A2058F442E096958795779567954A95D1F75E
S1130A306150710983E0D6CF6115710520E1820709
S1130A40910558F434E096958795779567953A958E
S1130A50D1F76150710984E0C5CF26E0969587955A
S1130A60779567952A95D1F76150710985E0BACFDA
S1130A70E0915A02F0915B02F89481E0818B089531
S1130A80E0915A02F0915B028189882311F0118A66
S1130A90789408957F928F929F92AF92BF92CF9253
S1130AA0DF92EF92FF920F931F93CF93DF9300D0C7
S1130AB0CDB7DEB7E0905A02F0905B029FB7F8948E
S1130AC0D70118962D913C91232B99F09FBF81E07B
S1130AD090E00F900F90DF91CF911F910F91FF90B5
S1130AE0EF90DF90CF90BF90AF909F908F907F90CA
S1130AF0089526EB3BE03A832983A0905C02B090F2
S1130B005D0221E030E0F701318720878287009180
S1130B105E0210915F02F4E08F9FC0011124080F60
S1130B20191FD80112968D909C90D12CC12C86E06F
S1130B30782EC814D904E1F4F701808591850197D2
S1130B4021F482E090E091878087D70118968D91F7
S1130B509C91029751F4F50162817381AB01C50147
S1130B600E94A800C5010E945F0790E080E0B1CF19
S1130B70D801ED91FC917C9CC0017D9C900D1124C9
S1130B80E80FF91FA081B18184819581813091059D
S1130B9031F0029769F0BFEFCB1ADB0ACACF42816A
S1130BA05381BD0112968D919C910E94220BF3CF2B
S1130BB042815381BD0112968D919C910E94CC0A71
S1130BC0EACFE0915A02F0915B02A081B18187855E
S1130BD0882319F0178685858FBF8189882311F0B2
S1130BE0118A78948FB7F8946EE97BE012968D9110
S1130BF09C910E94C800CF9390E0209154023091C0
S1130C0055028217930718F520915202309153022E
S1130C10880F991F820F931FFC0180819181CFB7A8
S1130C20F8940E943209E0915A02F0915B0201901B
S1130C30F081E02D87819085029720F488E492E08A
S1130C400E946C08CFBF90E080E0CF91089583E0CC
S1130C5090E0FBCFDC011496ED91FC9184E090E0F0
S1130C60938382830895EC01EC81FD81818124E0EA
S1130C7030E0338322838F3F09F07894E985FA8545
S1130C800995E0915A02F0915B02108A87858823C6
S1130C9019F0178685858FBF8189882311F0118A01
S1130CA078948FB7F8948F819885EC81FD810297B1
S1130CB009F5A481B581109731F46EE97BE08A814E
S1130CC09B810E94C8000D90BC91A02D14961C928B
S1130CD01E9213978D919C9195838483EACF0D90F6
S1130CE0BC91A02D14961C921E9213978D919C91E9
S1130CF095838483A481B581109789F7DECFE09131
S1130D005A02F0915B02808591850297E1F380910C
S1130D105C0290915D020C94830B0F931F93CF930D
S1130D20DF93EC01A881B981EB01E881F981169682
S1130D30CD91DC9117972097C1F18A819B813097DF
S1130D4009F43FC0EC010C811D8122813381E9014A
S1130D504C815D81E8013981EA012981321788F5E6
S1130D6022E030E0E8013B832A8320813181EB01DA
S1130D7039832883C281D3812C813D8116964D917C
S1130D805C911797518340831796FC93EE931697C3
S1130D90CD93DC934C85F9015181541708F44183B8
S1130DA0DF91CF911F910F910895309751F0EC018D
S1130DB08A819B81EC014C815D8122E030E0EA0173
S1130DC0D2CF90E080E0ECCFCF93DF93DB0112969B
S1130DD0ED91FC9141155105A1F02385DC01ED91C4
S1130DE0FC91B0E0A0E0309789F4109709F16D937D
S1130DF07C9390E080E0DB01ED93FC93DF91CF9155
S1130E0008950480F581E02D2181E8CFC281D3814A
S1130E104115510541F03B85321738F3DF0101904C
S1130E20F081E02DE0CF0C80DD81C02D3981F4CF3D
S1130E30DC016D937C9381E090E0DDCFFB01538373
S1130E40428341E050E00C94E406EF92FF920F934A
S1130E501F93CF93DF938C01FC01C081D181EE807D
S1130E60FF80F701808191819F838E83C8010E9456
S1130E708D06892B41F4EE81FF81309761F08281E8
S1130E80938199838883C701DF91CF911F910F913B
S1130E90FF90EF900895F801F2CFDC011496ED91E4
S1130EA0FC91159790811D968C91981728F49F5F5B
S1130EB0908390E080E0089584E090E00895DC0160
S1130EC01496ED91FC9115971B968C9181838081EA
S1130ED081508083811103C013821282089581E0BE
S1130EE090E0938382830895DC011496ED91FC9144
S1130EF080859185862B972B91878087DA011D92B7
S1130F001C928681978168237923672B39F0828527
S1130F109385009729F013861286089590E080E067
S1130F200895E0914A02F0914B0290E0880F991FD6
S1130F30E80FF91F60817181DB011496ED91FC913A
S1130F4080818F5F808350E040E088E492E00C94DD
S1130F508708AB01FB01A481B581E0915A02F091AD
S1130F605B0212968D919C911397892B51F481E029
S1130F7090E013969C938E93129719961C921E924E
S1130F801897A481B5818D919C9111979583848341
S1130F9011961C921E92BD01CF0102960C941E075D
S1130FA00F931F93CF93DF93DB0112964D915C91C6
S1130FB0FA01C481D58100915A0210915B0282E04A
S1130FC090E09B838A8383858983C80102960E946B
S1130FD01E07019791F4D801ED91FC910480F581ED
S1130FE0E02D81E090E039812181231708F080E031
S1130FF0DF91CF911F910F91089580E090E0F8CF99
S1131000AF92BF92CF92DF92EF92FF920F931F9312
S1131010CF93DF93C0915A02D0915B02FE01E1901D
S1131020F1906F01F70104811581FB01F182E082E7
S1131030F80182819381049731F5B6018AE592E043
S11310400E9425075C01C880D980EC14FD04B1F02E
S1131050C7010E945F078C819D81F5019183808384
S1131060BD82AC82C601DF91CF911F910F91FF9099
S1131070EF90DF90CF90BF90AF900895F8018081FA
S113108081508083E8CF6E817F81FB0180819181D3
S11310909F838E83F7018385F801818381E090E04B
S11310A0938382838081813011F411861086A70195
S11310B0C6010E941E07B6018AE592E00E948D06D1
S11310C0892B39F4EE81FF81C280D380D982C88212
S11310D0C9CFC880D980C6CFCF93DF93C0915A02BD
S11310E0D0915B02BE016E5F7F4F8AE592E00E9461
S11310F08D06009749F0688179810E945D0B81E03B
S113110090E0DF91CF91089590E080E0FACFCF9303
S1131110DF93E0915A02F0915B02808191812681F4
S11311203781EC01AC81BD811296CD91DC9113978E
S1131130249731F4C2E0D0E01396DC93CE93129757
S11311407183608341155105B9F4A481B5814D9132
S11311505C9111975583448311961C921E92B78318
S1131160A6830680F781E02D738362833183208315
S1131170DF91CF910C945D0B57834683F2CFAF92EE
S1131180BF92CF92DF92EF92FF920F931F93CF9370
S1131190DF93DC01AD90BC90E501E881F9812A81FF
S11311A03B81DB01CD90DC90E6015B834A8381E0E7
S11311B090E0B0E0A0E0309711F00097A9F4109708
S11311C079F10D90BC91A02D6D937C93E601F98388
S11311D0E883DF91CF911F910F91FF90EF90DF9003
S11311E0CF90BF90AF90089500811181E801EA800B
S11311F0FB802E153F0558F44E155F0518F424178F
S1131200350758F0DF01E801E881F981D4CF2417CC
S1131210350718F04E155F05A8F790E080E0CBCFB6
S1131220D501D2CFCF93DF93DC011296ED91FC91DF
S113123013970D90BC91A02D12962D913C91DF0136
S1131240A41BB50BA217B30730F0420F531FDF9155
S1131250CF910C94BF0841505109420F531F4E1BAC
S11312605F0BF5CF2F923F924F925F926F927F92D6
S11312708F929F92AF92BF92CF92DF92EF92FF92A2
S11312800F931F93CF93DF9300D000D000D01F9211
S1131290CDB7DEB7DC01CD90DC901197F601228149
S11312A0338112964D915C912417350708F488C058
S11312B01382128230E020E0F601008111810115D1
S11312C0110509F4DAC0D801ED91FC91119742811E
S11312D053814217530709F0D0C023E0E22EF12CCA
S11312E02D913C91F901F582E482A081B18110979E
S11312F049F06D917C911197FB01628173814617CE
S1131300570771F32C01F90111821082F601B183A0
S1131310A0838AE0382ED801ED90FC90F701F0818B
S1131320FF83D70111962C90F80120813181D901D6
S113133014968D919C91039709F099C0F701C38489
S1131340D484FFEFCF16DF0609F053C0D7011696F9
S1131350ED91FC91D2018D919C91DC0112964D91FD
S11313605C91D701309789F11A961C92D901159690
S11313701C921E921497E080F18083E0D7011A96A4
S11313808C931A971C961C921E921B9719965C9329
S11313904E931897A481B5818D919C91009709F47F
S11313A0F9C0480F591F8F01D801ED91FC9182E0DB
S11313B090E095838483B801C2010E94BF0857C09E
S11313C02F5F3F4F3383228377CF1C961C921E924C
S11313D01B9719965C934E931897D8011496ED9128
S11313E0FC9180819181009709F4D3C0480F591F63
S11313F0DBCFF801A480B5803C9CF0013D9CF00D4E
S11314001124EA0DFB1D848195819C838B83912C8F
S1131410812CDF011296BE83AD83EB81FC81E8153C
S1131420F90509F043C0D801ED91FC91119784812D
S113143095810397E1F416968D919C9117970197E6
S1131440C816D90609F093C0D70116968D919C91C0
S1131450892B09F071C0D8011D968D919C91892B1F
S113146009F06AC0D7011A961C92158214820F8162
S1131470122D0115110509F04ECF27960FB6F894D9
S1131480DEBF0FBECDBFDF91CF911F910F91FF90B3
S1131490EF90DF90CF90BF90AF909F908F907F9010
S11314A06F905F904F903F902F900895AD81BE81D3
S11314B0ED91FC911A821982389CC001399C900DDF
S11314C01124E80FF91F8085918581309105C9F0B9
S11314D048F08230910531F1039749F1BFEF8B1A3F
S11314E09B0A9BCF62807380C3010E944D079A833D
S11314F08983892B99F7B30188E492E00E94A907B4
S1131500EDCF66817781AE014F5F5F4F828193811A
S11315100E947407009711F3BC0188E492E00E94D2
S1131520D007DCCF848195810E943209D7CF019006
S1131530F081E02D0995D2CF8FEF9FEFF7019487CB
S11315408387D8011A964D915C913C9CC0013D9CC7
S1131550900D1124A80EB91EF50180819181841784
S11315609507B8F4D70118968D919C913FCFC60189
S11315700196F701948783871496ED91FC91389E28
S11315809001399E300D1124E20FF31F40815181E7
S1131590DCCFF8018F01C8CEEF92FF920F931F9317
S11315A0CF93DF93DB01ED91FC91E480F580B2E011
S11315B0EB16F10408F043C01782168214861386D2
S11315C0158623E02287EC010A811B812881398159
S11315D0E901AA81BB819801241B350B2A173B071B
S11315E0B8F09A012A0F3B1F31872087EA94EF282D
S11315F0B9F43383228384E090E09583848390E07C
S113160080E0DF91CF911F910F91FF90EF900895AB
S11316109A01215031092A0F3B1F201B310BE4CFC3
S113162022E030E035832483DB011496ED91FC91B4
S113163020813181420F531F0E941209E0CF87E0BD
S113164090E0DFCFCF93DF93DB01ED91FC91119715
S1131650248135812230310568F51782168214867B
S11316601386158618960D90BC91A02D119791F0B4
S1131670A3E0A287518740872130310569F4538361
S1131680428384E090E09583848390E080E0DF915E
S1131690CF910895A7E0EDCF22E030E03583248395
S11316A0EB01EC81FD8120813181420F531F0E94A7
S11316B0BF08EBCF87E090E0EACFFB01DC01129694
S11316C04D915C9162817381A481B58112968D9153
S11316D09C91029719F4CF010C946000CF010C94F3
S11316E0A800CB01DB0112966D917C91139714969F
S11316F0ED91FC91228133812230310511F40C9457
S113170080000C94A000DC0112966D917C911397DB
S1131710ED91FC9140815181DB01ED91FC91228995
S113172033892115310519F04217530729F4DB01D8
S1131730ED93FC930C948000F901F1CFCF93DF93E8
S113174000D0CDB7DEB7BE016F5F7F4F88E492E073
S11317500E940008BC0189819A810E94710B0F903C
S11317600F90DF91CF910895F894FFCFE8E60895A4
S11317708F939F9380E00E94C80B9F918F9118953F
S11317808F939F9381E00E94C80B9F918F9118952E
S11317901F920F920FB60F9211242F933F934F93E2
S11317A05F936F937F93AF93BF93EF93FF930E94E5
S11317B09107FF91EF91BF91AF917F916F915F91ED
S11317C04F913F912F910F900FBE0F901F9008954E
S11317D0A1E21A2EAA1BBB1BFD010DC0AA1FBB1F31
S11317E0EE1FFF1FA217B307E407F50720F0A21BA3
S11317F0B30BE40BF50B661F771F881F991F1A9410
S113180069F760957095809590959B01AC01BD0139
S1131810CF010895EE0FFF1F0590F491E02D099478
S1131820AEE0B0E0E6E1FCE00C94C80E8C01FA01F5
S113183086E08C831A83098377FF02C060E070E836
S1131840615071097E836D83A901BF01CE010196A8
S11318500E943C0C4D815E8157FD0AC02F81388562
S1131860421753070CF49A01020F131FF801108258
S11318702E96E4E00C94E40EABE0B0E0E2E4FCE08D
S11318800C94BA0E7C013B018A01FC01178216827A
S1131890838181FFC8C1CE0101965C01F701938168
S11318A0F30193FD859193FF81913F01882309F40E
S11318B053C1853239F493FD859193FF81913F01A2
S11318C0853229F4B70190E00E942C0EE7CF912CC9
S11318D0212C312CFFE1F31538F08B3211F190F407
S11318E0803209F1833229F137FC3CC020ED280F06
S11318F02A3050F536FE20C08AE0989E200D11242F
S1131900922E06C08D3291F0803371F7689430F8CE
S1131910F30193FD859193FF81913F018111DACF0A
S113192021C0689431F8689432F8F2CF689433F89F
S1131930EFCF689434F8ECCFEAE02E9E200D11240A
S1131940222E689435F8E4CF8E3229F436FC04C193
S1131950689436F8DDCF8C3619F4689437F8D8CF0C
S11319608836B1F2982F9F7D95549330E0F08336FA
S1131970A1F18337C1F1833509F063C02801F2E096
S11319804F0E511CF801C080D180692D70E036FCE7
S113199002C06FEF7FEFC6010E94160E4C016894DF
S11319A037F882010AC00C5F1F4FFFE3F9838824D4
S11319B08394912C6501E89437F833FE2DC0522CA2
S11319C08114910471F5552009F468CFB70180E2C0
S11319D090E00E942C0E5A94F6CFF80180818983FE
S11319E00E5F1F4FE4CF2801F2E04F0E511CF801A7
S11319F0C080D180692D70E036FC02C06FEF7FEFAC
S1131A00C6010E94210E4C018201D5CFB70180E2AC
S1131A1090E00E942C0E2A942814190409F0B0F7BF
S1131A20CECFF60137FC859137FE81916F01B70166
S1131A3090E00E942C0E51105A94F1E08F1A9108F4
S1131A40BFCF843619F0893609F077C0F80137FE24
S1131A506BC060817181828193810C5F1F4FF32D74
S1131A60FF763F2E97FF09C09095809570956195FC
S1131A707F4F8F4F9F4F689437F82AE030E0A501DD
S1131A800E945C0EC82ECA188C2C432C36FE0CC047
S1131A90E89440F8C91440F434FE05C032FC03C095
S1131AA0F32DFE7E4F2E892C44FE95C0FE01EC0DD5
S1131AB0F11D8081803309F087C0242D297E422EB8
S1131AC0842D8870582E43FC95C040FE8FC09C2CFA
S1131AD0821418F42C0C922C981844FE91C0B7016F
S1131AE080E390E00E942C0E42FE09C088E790E05B
S1131AF041FE02C088E590E0B7010E942C0EC91493
S1131B0008F48AC0CA94D12C9FEFC91AD90ACA0C06
S1131B10DB1CF60182916F01B70190E00E942C0E4C
S1131B20AC14BD04B1F74FCF60817181072E000C56
S1131B30880B990B0E5F1F4F92CFD32CE894D4F8E7
S1131B402AE030E0853739F1232D297FD22E8F36D4
S1131B5001F148F48835A9F0F701868197812B9625
S1131B60E2E10C94D60E803749F08837A9F7D4FE09
S1131B7002C06894D2F820E130E00DC06894D4F833
S1131B80F6CF34FE03C0822F8660D82E20E132E0E7
S1131B9002C028E030E0F801D7FE0FC060817181F7
S1131BA0828193810C5F1F4FA5010E945C0EC82E99
S1131BB0CA183D2CE89437F867CF6081718190E0B2
S1131BC080E00E5F1F4FF0CF42FC02C0839478CFB9
S1131BD08394839475CF842D867809F471CFF6CFDE
S1131BE0B70180E290E00E942C0E83948214C0F32B
S1131BF0512C73CF522C5818821408F46ECFF8CF9E
S1131C00842D867809F47BCF8BE241FE80E247FC89
S1131C108DE2B70190E071CFB70180E390E00E94BC
S1131C202C0E9A946CCF8FEF9FEF99CFFC01059007
S1131C30615070400110D8F7809590958E0F9F1FCA
S1131C400895FC016150704001900110D8F780950F
S1131C5090958E0F9F1F08950F931F93CF93DF933B
S1131C60182F092FEB018B8181FD09C01FEF0FEFA6
S1131C70812F902FDF91CF911F910F91089582FFB3
S1131C8014C02E813F818C819D81281739073CF433
S1131C90E881F981CF0101969983888310838E812D
S1131CA09F8101969F838E83E3CFE885F985812FF9
S1131CB00995892BA1F3DACFFA01AA27283051F12B
S1131CC0203181F1E8946F936E7F6E5F7F4F8F4F69
S1131CD09F4FAF4FB1E03ED0B4E03CD0670F781FC8
S1131CE0891F9A1FA11D680F791F8A1F911DA11DAD
S1131CF06A0F711D811D911DA11D20D009F46894E6
S1131D003F912AE0269F11243019305D3193DEF68D
S1131D10CF010895462F4770405D4193B3E00FD043
S1131D20C9F7F6CF462F4F70405D4A3318F0495D2E
S1131D3031FD4052419302D0A9F7EACFB4E0A69511
S1131D409795879577956795BA95C9F70097610533
S1131D50710508959B01AC010A2E06945795479589
S1131D6037952795BA95C9F7620F731F841F951F7E
S1131D70A01D08952F923F924F925F926F927F928F
S1131D808F929F92AF92BF92CF92DF92EF92FF9287
S1131D900F931F93CF93DF93CDB7DEB7CA1BDB0B33
S1131DA00FB6F894DEBF0FBECDBF09942A883988D8
S1131DB048885F846E847D848C849B84AA84B984DF
S1131DC0C884DF80EE80FD800C811B81AA81B981EB
S1131DD0CE0FD11D0FB6F894DEBF0FBECDBFED01FF
S1091DE00895F894FFCF02
S1131DE6FBFFFFFF4A030000160100000000FF008E
S1131DF60000000000001A0100001E01000022017C
S1131E060000260100000000000000800000000021
S1131E160000000000000080000000000000000038
S1131E2600000003000000000000000000000002A3
S1131E360000000000000000000000010000000097
S1131E460000000000000100040000000000000083
S1131E5600009006900590040000014E4100555084
S1131E6600444F574E000A25346C643A205B2573B0
S1131E765D20003C425554544F4E2055503E003C84
S1131E86425554544F4E20444F574E3E00546173AE
S1131E966B5F327320626567696E732E2E2E200087
S1131EA65461736B5F32732066696E697368657318
S1131EB62E2E2E20005461736B5F34732062656787
S1131EC6696E732E2E2E20005461736B5F3473205B
S1131ED666696E69736865732E2E2E2000546173CD
S1131EE66B5F387320626567696E732E2E2E200031
S1131EF65461736B5F38732066696E6973686573C2
S1131F062E2E2E20000A2E2E2E2E2E2E2E2E2E2E47
S1131F162E2E2E2E2E0A002E2E2E4F532053746153
S1131F267274732E2E2E0A004B07F8020600F30273
S1131F360100EB0201006C02010004014A03620283
S1131F460100660201006E02050001006E027A03BA
S1131F56ED027D020400000008000001000000CD2F
S1131F66020300000000000200C30201000000009A
S1131F76000400AF020200000000000600A50201F2
S1131F860000000000000020030000000000000024
S1131F9600200300000000000000002E03000000E3
S1131FA600000000002003000000000000000020E4
S1131FB60300000000000000002E030000000000E3
S1131FC60000003C03000000000000ED028803FF4F
S1131FD6FF0100F5028C03030403120320032E03FE
S1131FE63C034A03640378012A0100020074018059
S1131FF68001640378013601010200390180800101
S11320065803720142010200009B010303015C03B1
S113201674014E01030000AD010202016003760162
S11320265A01040000BF010101016403780166013D
S11320360503007F060000019105000191040001DB
S113204691030001000000000000000062039604F2
S10D205611034203E302FD02EF024E
S9030000FC
