:100000000C9435000C945D000C945D000C945D0024
:100010000C945D000C945D000C945D000C945D00EC
:100020000C945D000C945D000C945D000C947E09B2
:100030000C945D000C945D000C945D000C945D00CC
:100040000C94B1020C945D000C9470040C94A20406
:100050000C945D000C945D000C945D000C945D00AC
:100060000C945D000C945D00C80411241FBECFEFFA
:10007000D8E0DEBFCDBF13E0A0E0B1E0E2E6F9E1F9
:1000800002C005900D92A83AB107D9F727E0A8EA77
:10009000B3E001C01D92A836B207E1F710E0C5E356
:1000A000D0E004C02197FE010E94C809C433D107E3
:1000B000C9F70E9488020C94AF0C0C947A090000D6
:1000C0002F923F924F925F926F927F928F929F9268
:1000D000AF92BF92CF92DF92EF92FF920F931F9356
:1000E000CF93DF93E42FF52F419050804F925F9292
:1000F000E42FF52F4DB65EB6419250820C948000ED
:10010000E62FF72F419050804DBE5EBE5F904F901E
:10011000E62FF72F41925082DF91CF911F910F91DF
:10012000FF90EF90DF90CF90BF90AF909F908F9017
:100130007F906F905F904F903F902F900C94AA0605
:10014000E62FF72F419150814DBF5EBF0C94B3064F
:100150002F923F924F925F926F927F928F929F92D7
:10016000AF92BF92CF92DF92EF92FF920F931F93C5
:10017000CF93DF93E42FF52F419050804F925F9201
:10018000E42FF52F4DB65EB6419250820C94A0003C
:10019000E82FF92F419150814DBF5EBFE62FF72F19
:1001A000099400008091000190910101A091020149
:1001B000B09103010196A11DB11D809300019093A0
:1001C0000101A0930201B0930301BF93AF939F93EA
:1001D0008F938AE691E09F938F930E9450028091C3
:1001E000000190910101A0910201B09103010F90D3
:1001F0000F900F900F900F900F908C3F2FEF920762
:10020000A207B20761F461E070E08DE597E00E941B
:10021000AA0262E070E082E697E00C94AA020097DE
:10022000A105B10519F483E00C94D805833091053C
:10023000A105B10511F482E0F7CF0597A105B1053D
:1002400011F481E0F1CF089582E791E09F938F93BD
:100250000E94500268EE73E080E090E00E94080285
:1002600083E891E09F938F930E94500282E00E9466
:1002700027068AE991E09F938F930E94500268EBD2
:100280007BE080E090E00E94080281EB91E09F9388
:100290008F930E94500281E00E94270688EC91E033
:1002A0009F938F930E94500268EB7BE080E090E088
:1002B0000E9408028FED91E09F938F930E9450025D
:1002C00081E00E94640668EE73E080E090E00E94A6
:1002D00008028AEF91E09F938F930E94500282E080
:1002E0000E94640668EE73E080E090E00E940802DD
:1002F00085E192E09F938F930E9450028DB79EB745
:1003000040960FB6F8949EBF0FBE8DBF0C940D069D
:1003100084E292E09F938F930E94500268EE73E014
:1003200080E090E00E94080285E392E09F938F9323
:100330000E94500282E00E9427068CE492E09F9384
:100340008F930E94500260ED77E080E090E00E9481
:10035000080283E692E09F938F930E94500282E00E
:100360000E94640668EE73E080E090E00E9408025C
:100370008EE792E09F938F930E9450028DB79EB7B5
:100380000A960FB6F8949EBF0FBE8DBF0C940D0653
:100390008DE892E09F938F930E94500260ED77E08A
:1003A00080E090E00E9408028EE992E09F938F9394
:1003B0000E94500281E00E94270685EB92E09F9305
:1003C0008F930E94500260EA7FE080E090E00E94FC
:1003D00008028CEC92E09F938F930E94500281E080
:1003E0000E94640668EE73E080E090E00E940802DC
:1003F00087EE92E09F938F930E9450028DB79EB735
:100400000A960FB6F8949EBF0FBE8DBF0C940D06D2
:100410004F925F926F927F928F929F92AF92BF9214
:10042000CF92DF92EF92FF926B017C010E94FB0260
:100430004B015C010E94FB02C701B60124E130E0E0
:1004400040E050E00E94A60929013A01C12CD12CBC
:1004500076014C145D046E047F04A9F00E94FB0237
:10046000681979098A099B0964317105810591052B
:1004700080F38FEFC81AD80AE80AF80A0E94FB0234
:100480004B015C01E6CFFF90EF90DF90CF90BF90E3
:10049000AF909F908F907F906F905F904F90089556
:1004A000CF93DF93CDB7DEB7C058D1090FB6F8941C
:1004B000DEBF0FBECDBF9E012B573F4FF9014191CB
:1004C00051919F0160E870E0CE0101960E94CE0933
:1004D000BE016F5F7F4F80EC96E00E943105C058EF
:1004E000DF4F0FB6F894DEBF0FBECDBFDF91CF91C7
:1004F000089526E040E855E260E070E080EC96E088
:100500000E940E0460E472E48FE090E00C943905E0
:100510000E9407030E94790286EF92E09F938F93D7
:100520000E94500288E093E09F938F930E945002B4
:1005300087EF92E09F938F930E94500280E00E9489
:1005400097050F900F900F900F900F900F9090E0E5
:1005500080E00895FC01118210821482738362830B
:1005600008951F920F920FB60F9211242F933F936D
:100570008F939F93AF93BF938091B8069091B906E4
:10058000A091BA06B091BB063091B70623E0230FC5
:100590002D3758F50196A11DB11D2093B706809304
:1005A000B8069093B906A093BA06B093BB068091A3
:1005B000BC069091BD06A091BE06B091BF06019603
:1005C000A11DB11D8093BC069093BD06A093BE06ED
:1005D000B093BF06BF91AF919F918F913F912F91A3
:1005E0000F900FBE0F901F90189526E8230F0296CC
:1005F000A11DB11DD2CF2FB7F8946091B8067091AC
:10060000B9068091BA069091BB062FBF08957894E1
:1006100084B5826084BD84B5816084BD85B5826007
:1006200085BD85B5816085BDEEE6F0E080818160A5
:100630008083E1E8F0E010828081826080838081A5
:1006400081608083E0E8F0E0808181608083E1EB7D
:10065000F0E0808184608083E0EBF0E08081816065
:100660008083EAE7F0E0808184608083808182601B
:100670008083808181608083808180688083109204
:10068000C1000895FC01918D228D892F90E0805C3E
:100690009F4F821B91098F7399270895FC01918DBB
:1006A000828D981731F0828DE80FF11D858D90E0D5
:1006B00008958FEF9FEF0895FC01918D828D98171B
:1006C00061F0A28DAE0FBF2FB11D5D968C91928D02
:1006D0009F5F9F73928F90E008958FEF9FEF089533
:1006E000FC01538D448D252F30E0842F90E0821B38
:1006F000930B541710F0CF96089501970895FC01BD
:10070000A48DA80FB92FB11DA35ABF4F2C91848D72
:1007100090E001968F739927848FA689B7892C93CF
:10072000A089B1898C91837080648C93938D848D22
:10073000981306C00288F389E02D80818F7D808325
:100740000895CF93DF93EC01888D8823B9F0AA89AF
:10075000BB89E889F9898C9185FD03C0808186FD7C
:100760000DC00FB607FCF7CF8C9185FFF2CF8081CB
:1007700085FFEDCFCE010E947F03E9CFDF91CF91BE
:100780000895EF92FF920F931F93CF93DF93EC01A5
:1007900081E0888F9B8D8C8D98131AC0E889F98928
:1007A000808185FF15C09FB7F894EE89FF8960832B
:1007B000E889F98980818370806480839FBF81E0AC
:1007C00090E0DF91CF911F910F91FF90EF900895EE
:1007D000F62E0B8D10E00F5F1F4F0F731127E02EC9
:1007E0008C8D8E110CC00FB607FCFACFE889F98901
:1007F000808185FFF5CFCE010E947F03F1CFEB8D85
:10080000EC0FFD2FF11DE35AFF4FF0829FB7F894D4
:100810000B8FEA89FB8980818062CFCFCF92DF92F4
:10082000EF92FF921F93CF93DF93EC016A017B015C
:10083000122FE889F98982E08083C11481EED806FD
:10084000E104F104A1F060E079E08DE390E0A7011C
:1008500096010E94A6092150310941095109569576
:10086000479537952795211580E1380798F0E88955
:10087000F989108260E874E88EE190E0A7019601A2
:100880000E94A60921503109410951095695479501
:1008900037952795EC85FD853083EE85FF85208390
:1008A000188EEC89FD891083EA89FB89808180613B
:1008B0008083EA89FB89808188608083EA89FB895B
:1008C000808180688083EA89FB8980818F7D808335
:1008D000DF91CF911F91FF90EF90DF90CF9008951F
:1008E0001F920F920FB60F9211242F938F939F9305
:1008F000EF93FF93E091D006F091D1068081E091D3
:10090000D606F091D70682FD1BC090818091D90652
:100910008F5F8F732091DA06821741F0E091D9063C
:10092000F0E0E054F94F958F8093D906FF91EF9155
:100930009F918F912F910F900FBE0F901F90189540
:100940008081F4CF1F920F920FB60F9211242F9334
:100950003F934F935F936F937F938F939F93AF9347
:10096000BF93EF93FF9380EC96E00E947F03FF918B
:10097000EF91BF91AF919F918F917F916F915F9117
:100980004F913F912F910F900FBE0F901F90189590
:10099000E0ECF6E01382128288EE93E0A0E0B0E093
:1009A00084839583A683B7838AE993E091838083C8
:1009B00085EC90E09587848784EC90E09787868724
:1009C00080EC90E0918B808B81EC90E0938B828B1C
:1009D00082EC90E0958B848B86EC90E0978B868BF5
:1009E000118E128E138E148E0895AF92BF92CF92F5
:1009F000DF92EF92FF920F931F93CF93DF936C01DF
:100A00007B018B01040F151FEB015E01AE18BF08BF
:100A1000C017D10759F06991D601ED91FC91019071
:100A2000F081E02DC6010995892B79F7C501DF9189
:100A3000CF911F910F91FF90EF90DF90CF90BF90DB
:100A4000AF900895FB0101900020E9F73197AF01C5
:100A5000461B570BDC01ED91FC910280F381E02DE8
:100A600009946115710511F00C94220590E080E065
:100A700008951092810010928000109282001092CE
:100A8000850010928400611520E1720781059105AF
:100A9000A0F4E4E0660F771FEA95E1F76150710971
:100AA00081E092E096BB90936F0070938900609311
:100AB00088008860809381000895611520E872079E
:100AC0008105910530F4660F771F6150710982E04E
:100AD000E8CF6C3F2FEF720723E08207910558F4AF
:100AE00042E096958795779567954A95D1F761503D
:100AF000710983E0D6CF6115710520E18207910568
:100B000058F434E096958795779567953A95D1F79F
:100B10006150710984E0C5CF26E096958795779559
:100B200067952A95D1F76150710985E0BACF0F9387
:100B30001F93CF93DF9300D0CDB7DEB7E0912303AF
:100B4000F09124039FB7F89420853185232B51F031
:100B50009FBF81E090E00F900F90DF91CF911F91A8
:100B60000F9108952CE739E03A83298300912503FA
:100B70001091260321E030E031872087828780852D
:100B80009185019721F482E090E0918780878085AC
:100B90009185029751F4F80162817381AB01C8011C
:100BA0000E94A800C8010E94DF0790E080E0D3CF38
:100BB000FF920F931F93CF93DF9390E020911D033B
:100BC00030911E038217930728F520911B03309163
:100BD0001C03880F991F820F931FFC010081118154
:100BE000F801878190850297A8F4FFB6F894C801B0
:100BF0000E94CD07EC01892B29F4B80189E193E02B
:100C00000E940C08FFBECE01DF91CF911F910F9182
:100C1000FF900895C3E0D0E0F6CFE0912303F09178
:100C20002403A081B1818785882319F017868585E3
:100C30008FBF8189882311F0118A78948FB7F89437
:100C400064E679E012968D919C910E94C800CF9342
:100C5000DF9390E0209121033091220382179307C4
:100C600080F5E0912303F09124034081518120918C
:100C70001F0330912003880F991F820F931FDC01FF
:100C80006D917C91FB01C081D181DA011496ED91C7
:100C9000FC91DB0112969C9181812FB7F894891702
:100CA00008F491835C834B832FBF24813581398382
:100CB00028838A837583648390E080E0DF91CF91FD
:100CC000089583E090E0FACF1F93CF93DF9390E0F5
:100CD000209121033091220382179307C0F5E09100
:100CE0002303F0912403C081D181EC81FD81209107
:100CF0001F0330912003880F991F820F931FDC017F
:100D00008D919C91DC012D913C911FB7F8948481C9
:100D10009581DC018D919C91DC018D919C91958355
:100D20008483892B91F0D90112968C918183F901EA
:100D30001482138289E193E00E94D0081FBF90E0E3
:100D400080E0DF91CF911F9108958C85EFCF83E0F4
:100D500090E0F7CFDC011496ED91FC9184E090E0F7
:100D6000938382830895EC01EC81FD81818124E0ED
:100D700030E0338322838F3F09F07894E985FA8548
:100D80000995E0912303F0912403108A8785882335
:100D900019F0178685858FBF8189882311F0118A04
:100DA00078948FB7F8948F819885EC81FD810297B4
:100DB00009F5A481B581109731F464E679E08A8160
:100DC0009B810E94C8000D90BC91A02D14961C928E
:100DD0001E9213978D919C9195838483EACF0D90F9
:100DE000BC91A02D14961C921E9213978D919C91EC
:100DF00095838483A481B581109789F7DECFE09134
:100E00002303F0912403808591850297E1F380917B
:100E10002503909126030C9449090F931F93CF93B8
:100E2000DF93EC01A881B981EB01E881F981169685
:100E3000CD91DC9117972097C1F18A819B813097E2
:100E400009F43FC0EC010C811D8122813381E9014D
:100E50004C815D81E8013981EA012981321788F5E9
:100E600022E030E0E8013B832A8320813181EB01DD
:100E700039832883C281D3812C813D8116964D917F
:100E80005C911797518340831796FC93EE931697C6
:100E9000CD93DC934C85F9015181541708F44183BB
:100EA000DF91CF911F910F910895309751F0EC0190
:100EB0008A819B81EC014C815D8122E030E0EA0176
:100EC000D2CF90E080E0ECCFCF93DF93DB0112969E
:100ED000ED91FC9141155105A1F02385DC01ED91C7
:100EE000FC91B0E0A0E0309789F4109709F16D9380
:100EF0007C9390E080E0DB01ED93FC93DF91CF9158
:100F000008950480F581E02D2181E8CFC281D3814D
:100F10004115510541F03B85321738F3DF0101904F
:100F2000F081E02DE0CF0C80DD81C02D3981F4CF40
:100F3000DC016D937C9381E090E0DDCFFB01538376
:100F4000428341E050E00C946407EF92FF920F93CC
:100F50001F93CF93DF938C01FC01C081D181EE8080
:100F6000FF80F701808191819F838E83C8010E9459
:100F70000D07892B41F4EE81FF81309761F082816A
:100F8000938199838883C701DF91CF911F910F913E
:100F9000FF90EF900895F801F2CFDC011496ED91E7
:100FA000FC91159790811D968C91981728F49F5F5E
:100FB000908390E080E0089584E090E00895DC0163
:100FC0001496ED91FC9115971B968C9181838081ED
:100FD00081508083811103C013821282089581E0C1
:100FE00090E0938382830895E0911B03F0911C03AA
:100FF00090E0880F991FE80FF91F60817181DB0174
:101000001496ED91FC9180818F5F808350E040E0E9
:1010100089E193E00C94EB08EF92FF920F931F93FA
:10102000CF93DF93DB011496ED90FC90E0912303C6
:10103000F091240380819181EC014C815D81A48138
:10104000B5812D913C911197EA010981E701198140
:10105000011710F53583248322E030E0EA013B8359
:101060002A8313967C936E9312972681378111966B
:101070003C932E93B783A68371836083F701118617
:1010800010860E94230981E090E0DF91CF911F91AB
:101090000F91FF90EF9008958A819B81892B31F405
:1010A00081E090E09B838A831986188635832483A8
:1010B00011961C921E92AB01BD01CF0102960E94B7
:1010C0009E0790E080E0E1CFAF92BF92CF92DF9297
:1010D000EF92FF920F931F93CF93DF93C09123035F
:1010E000D0912403FE01E190F1906F01F70104819A
:1010F0001581FB01F182E082F801828193810497DE
:1011000031F5B60183E293E00E94A5075C01C88037
:10111000D980EC14FD04B1F0C7010E94DF078C8177
:101120009D81F50191838083BD82AC82C601DF91F0
:10113000CF911F910F91FF90EF90DF90CF90BF90D4
:10114000AF900895F801808181508083E8CF6E814F
:101150007F81FB01808191819F838E83F70183854D
:10116000F801818381E090E09383828380818130E4
:1011700011F411861086A701C6010E949E07B601D0
:1011800083E293E00E940D07892B39F4EE81FF8101
:10119000C280D380D982C882C9CFC880D980C6CF47
:1011A000CF93DF93C0912303D0912403BE016E5FE0
:1011B0007F4F83E293E00E940D07009749F068811A
:1011C00079810E94230981E090E0DF91CF91089519
:1011D00090E080E0FACFCF93DF93E0912303F0918A
:1011E00024038081918126813781EC01AC81BD810E
:1011F0001296CD91DC911397249731F4C2E0D0E0A0
:101200001396DC93CE931297718360834115510539
:10121000B9F4A481B5814D915C91119755834483B4
:1012200011961C921E92B783A6830680F781E02D4B
:101230007383628331832083DF91CF910C942309E0
:1012400057834683F2CFFB01DC0112964D915C91EE
:1012500062817381A481B58112968D919C910297D0
:1012600019F4CF010C946000CF010C94A800CB01BD
:10127000DB0112966D917C9113971496ED91FC9180
:10128000228133812230310511F40C9480000C94BA
:10129000A000DC0112966D917C911397ED91FC9169
:1012A00040815181DB01ED91FC9122893389211527
:1012B000310519F04217530729F4DB01ED93FC9334
:1012C0000C948000F901F1CFCF93DF9300D0CDB71C
:1012D000DEB7BE016F5F7F4F89E193E00E94640833
:1012E000BC0189819A810E9437090F900F90DF918C
:1012F000CF910895F894FFCFE4EF08958F939F93D3
:1013000080E00E9486099F918F9118951F920F92FD
:101310000FB60F9211242F933F934F935F936F93C8
:101320007F93AF93BF93EF93FF930E94F407FF91D6
:10133000EF91BF91AF917F916F915F914F913F91ED
:101340002F910F900FBE0F901F900895A1E21A2EBB
:10135000AA1BBB1BFD010DC0AA1FBB1FEE1FFF1F59
:10136000A217B307E407F50720F0A21BB30BE40BA9
:10137000F50B661F771F881F991F1A9469F76095F0
:101380007095809590959B01AC01BD01CF010895AA
:10139000EE0FFF1F0590F491E02D0994AEE0B0E050
:1013A000E4EDF9E00C94860C8C01FA0186E08C8364
:1013B0001A83098377FF02C060E070E86150710909
:1013C0007E836D83A901BF01CE0101960E94FA09B7
:1013D0004D815E8157FD0AC02F8138854217530722
:1013E0000CF49A01020F131FF80110822E96E4E00C
:1013F0000C94A20CABE0B0E0E0E0FAE00C94780CC6
:101400007C013B018A01FC0117821682838181FFE6
:10141000C8C1CE0101965C01F7019381F30193FDF0
:10142000859193FF81913F01882309F453C185324F
:1014300039F493FD859193FF81913F01853229F421
:10144000B70190E00E94EA0BE7CF912C212C312CC0
:10145000FFE1F31538F08B3211F190F4803209F18D
:10146000833229F137FC3CC020ED280F2A3050F59B
:1014700036FE20C08AE0989E200D1124922E06C0D0
:101480008D3291F0803371F7689430F8F30193FD59
:10149000859193FF81913F018111DACF21C068943A
:1014A00031F8689432F8F2CF689433F8EFCF68944B
:1014B00034F8ECCFEAE02E9E200D1124222E689401
:1014C00035F8E4CF8E3229F436FC04C1689436F83E
:1014D000DDCF8C3619F4689437F8D8CF8836B1F25E
:1014E000982F9F7D95549330E0F08336A1F1833798
:1014F000C1F1833509F063C02801F2E04F0E511CA1
:10150000F801C080D180692D70E036FC02C06FEF19
:101510007FEFC6010E94D40B4C01689437F882011A
:101520000AC00C5F1F4FFFE3F98388248394912C3A
:101530006501E89437F833FE2DC0522C81149104D4
:1015400071F5552009F468CFB70180E290E00E9460
:10155000EA0B5A94F6CFF801808189830E5F1F4F02
:10156000E4CF2801F2E04F0E511CF801C080D18079
:10157000692D70E036FC02C06FEF7FEFC6010E945C
:10158000DF0B4C018201D5CFB70180E290E00E94D1
:10159000EA0B2A942814190409F0B0F7CECFF6010B
:1015A00037FC859137FE81916F01B70190E00E9471
:1015B000EA0B51105A94F1E08F1A9108BFCF84368C
:1015C00019F0893609F077C0F80137FE6BC06081E9
:1015D0007181828193810C5F1F4FF32DFF763F2E27
:1015E00097FF09C090958095709561957F4F8F4FBB
:1015F0009F4F689437F82AE030E0A5010E941A0C4A
:10160000C82ECA188C2C432C36FE0CC0E89440F827
:10161000C91440F434FE05C032FC03C0F32DFE7E35
:101620004F2E892C44FE95C0FE01EC0DF11D8081EA
:10163000803309F087C0242D297E422E842D8870A6
:10164000582E43FC95C040FE8FC09C2C821418F489
:101650002C0C922C981844FE91C0B70180E390E0C6
:101660000E94EA0B42FE09C088E790E041FE02C0FA
:1016700088E590E0B7010E94EA0BC91408F48AC01B
:10168000CA94D12C9FEFC91AD90ACA0CDB1CF601E7
:1016900082916F01B70190E00E94EA0BAC14BD0487
:1016A000B1F74FCF60817181072E000C880B990B29
:1016B0000E5F1F4F92CFD32CE894D4F82AE030E08D
:1016C000853739F1232D297FD22E8F3601F148F449
:1016D0008835A9F0F701868197812B96E2E10C9479
:1016E000940C803749F08837A9F7D4FE02C068947B
:1016F000D2F820E130E00DC06894D4F8F6CF34FE83
:1017000003C0822F8660D82E20E132E002C028E09C
:1017100030E0F801D7FE0FC0608171818281938132
:101720000C5F1F4FA5010E941A0CC82ECA183D2C31
:10173000E89437F867CF6081718190E080E00E5FB8
:101740001F4FF0CF42FC02C0839478CF83948394E0
:1017500075CF842D867809F471CFF6CFB70180E27A
:1017600090E00E94EA0B83948214C0F3512C73CF53
:10177000522C5818821408F46ECFF8CF842D867836
:1017800009F47BCF8BE241FE80E247FC8DE2B7019A
:1017900090E071CFB70180E390E00E94EA0B9A9449
:1017A0006CCF8FEF9FEF99CFFC0105906150704097
:1017B0000110D8F7809590958E0F9F1F0895FC011A
:1017C0006150704001900110D8F7809590958E0F70
:1017D0009F1F08950F931F93CF93DF93182F092F07
:1017E000EB018B8181FD09C01FEF0FEF812F902F3F
:1017F000DF91CF911F910F91089582FF14C02E8128
:101800003F818C819D81281739073CF4E881F9815B
:10181000CF0101969983888310838E819F810196E1
:101820009F838E83E3CFE885F985812F0995892BE6
:10183000A1F3DACFFA01AA27283051F1203181F142
:10184000E8946F936E7F6E5F7F4F8F4F9F4FAF4FC8
:10185000B1E03ED0B4E03CD0670F781F891F9A1FDB
:10186000A11D680F791F8A1F911DA11D6A0F711D8F
:10187000811D911DA11D20D009F468943F912AE09B
:10188000269F11243019305D3193DEF6CF01089583
:10189000462F4770405D4193B3E00FD0C9F7F6CFB4
:1018A000462F4F70405D4A3318F0495D31FD40527C
:1018B000419302D0A9F7EACFB4E0A6959795879512
:1018C00077956795BA95C9F70097610571050895F1
:1018D0009B01AC010A2E069457954795379527959D
:1018E000BA95C9F7620F731F841F951FA01D089535
:1018F0002F923F924F925F926F927F928F929F9220
:10190000AF92BF92CF92DF92EF92FF920F931F930D
:10191000CF93DF93CDB7DEB7CA1BDB0B0FB6F894BE
:10192000DEBF0FBECDBF09942A88398848885F84FE
:101930006E847D848C849B84AA84B984C884DF806F
:10194000EE80FD800C811B81AA81B981CE0FD11D53
:101950000FB6F894DEBF0FBECDBFED010895F89429
:02196000FFCFB7
:10196200FBFFFFFF78030000160100000000FF00EC
:101972000000000000001A0100001E010000220108
:1019820000000000000000800000000000000000D5
:101992000000000300000000000000000000000240
:1019A2000000000000000000000000010000000034
:1019B2000000000000000100040000000000000020
:1019C2000000B606B605B60400000A25346C643A77
:1019D20020003C5461736B4820626567696E732E08
:1019E2003E20005461736B48203A20547279204C97
:1019F2006F636B285332292E20005461736B482089
:101A02003A20476574204C6F636B285332292E208D
:101A1200005461736B48203A20547279204C6F63F2
:101A22006B285331292E20005461736B48203A20D1
:101A3200476574204C6F636B285331292E20005464
:101A420061736B48203A2052656C65617365204C66
:101A52006F636B285331292E20005461736B482029
:101A62003A2052656C65617365204C6F636B285335
:101A720032292E20003C5461736B4820656E6473DA
:101A82002E3E20003C5461736B4D20626567696E87
:101A9200732E3E20005461736B4D203A20547279AC
:101AA200204C6F636B285332292E20005461736BD4
:101AB2004D203A20476574204C6F636B28533229BE
:101AC2002E20005461736B4D203A2052656C656183
:101AD2007365204C6F636B285332292E20003C54CF
:101AE20061736B4D20656E64732E3E20003C546121
:101AF200736B4C20626567696E732E3E20005461E1
:101B0200736B4C203A20547279204C6F636B2853CC
:101B120031292E20005461736B4C203A20476574A2
:101B2200204C6F636B285331292E20005461736B54
:101B32004C203A2052656C65617365204C6F636B73
:101B4200285331292E20003C5461736B4C20656E62
:101B520064732E3E20000A2E2E2E2E2E2E2E2E2E78
:101B62002E2E2E2E2E2E0A002E2E2E4F5320537442
:101B7200617274732E2E2E0A006707360305002742
:101B8200030300040178032D0330033303A8030386
:101B9200AD0303B2030340034E035C036A037803FD
:101BA200920368012601000200D2008080018603B0
:101BB2006201320101010024010303018A0364016D
:101BC2003E0102010088010202018E0366014A0100
:101BD200030100C8010101019203680156010403D7
:101BE20000FF06000001B7050001B7040001B703BA
:101BF20000010000000000000000C103F5047003B2
:081C0200A10342035C034E0341
:00000001FF
