:100000000C9435000C945D000C945D000C945D0024
:100010000C945D000C945D000C945D000C945D00EC
:100020000C945D000C945D000C945D000C94C90967
:100030000C945D000C945D000C945D000C945D00CC
:100040000C9490020C945D000C944F040C94810469
:100050000C945D000C945D000C945D000C945D00AC
:100060000C945D000C945D00A70411241FBECFEF1B
:10007000D8E0DEBFCDBF13E0A0E0B1E0E8EFF9E1EA
:1000800002C005900D92AA31B107D9F726E0AAE186
:10009000B3E001C01D92AB3CB207E1F710E0C5E34D
:1000A000D0E004C02197FE010E94130AC433D10797
:1000B000C9F70E943A020C94FA0C0C94C50900008E
:1000C0002F923F924F925F926F927F928F929F9268
:1000D000AF92BF92CF92DF92EF92FF920F931F9356
:1000E000CF93DF93E42FF52F419050804F925F9292
:1000F000E42FF52F4DB65EB6419250820C948000ED
:10010000E62FF72F419050804DBE5EBE5F904F901E
:10011000E62FF72F41925082DF91CF911F910F91DF
:10012000FF90EF90DF90CF90BF90AF909F908F9017
:100130007F906F905F904F903F902F900C94A80607
:10014000E62FF72F419150814DBF5EBF0C94B10651
:100150002F923F924F925F926F927F928F929F92D7
:10016000AF92BF92CF92DF92EF92FF920F931F93C5
:10017000CF93DF93E42FF52F419050804F925F9201
:10018000E42FF52F4DB65EB6419250820C94A0003C
:10019000E82FF92F419150814DBF5EBFE62FF72F19
:1001A000099400008091000190910101A091020149
:1001B000B09103010196A11DB11D809300019093A0
:1001C0000101A0930201B0930301BF93AF939F93EA
:1001D0008F938AE691E09F938F930E940202809111
:1001E000000190910101A0910201B09103010F90D3
:1001F0000F900F900F900F900F908C3F2FEF920762
:10020000A207B20731F461E070E085EC96E00C944F
:100210005C020097A105B10519F483E00C94B705C1
:1002200085309105A105B10511F481E0F7CF0A975A
:10023000A105B10511F482E0F1CF089582E791E0C4
:100240009F938F930E94020268EE73E080E090E03B
:100250000E94BA0183E891E09F938F930E9402026B
:1002600085EC96E00E9463028AE991E09F938F9368
:100270000E94020268EB7BE080E090E00E94BA01FD
:1002800081EB91E09F938F930E94020285EC96E0B0
:100290000E94810268EE73E080E090E00E94BA0163
:1002A0008CEC91E09F938F930E9402028DB79EB7D2
:1002B0000A960FB6F8949EBF0FBE8DBF0C94EC0546
:1002C0008BED91E09F938F930E94020268EB7BE09D
:1002D00080E090E00E94BA018CEE91E09F938F93B2
:1002E0000E9402020F900F900F900F900C94EC055B
:1002F0008BEF91E09F938F930E94020268EB7BE06B
:1003000080E090E00E94BA018CE092E09F938F938E
:100310000E94020285EC96E00E94630283E292E072
:100320009F938F930E94020268E273E280E090E064
:100330000E94BA018AE392E09F938F930E94020287
:1003400085EC96E00E94810268EE73E080E090E028
:100350000E94BA0185E592E09F938F930E9402026A
:100360008DB79EB70A960FB6F8949EBF0FBE8DBF8D
:100370000C94EC054F925F926F927F928F929F92B6
:10038000AF92BF92CF92DF92EF92FF926B017C010E
:100390000E94DA024B015C010E94DA02C701B60139
:1003A00024E130E040E050E00E94F10929013A01E7
:1003B000C12CD12C76014C145D046E047F04A9F08D
:1003C0000E94DA02681979098A099B09643171056A
:1003D0008105910580F38FEFC81AD80AE80AF80A58
:1003E0000E94DA024B015C01E6CFFF90EF90DF90B4
:1003F000CF90BF90AF909F908F907F906F905F90C5
:100400004F900895CF93DF93CDB7DEB7C058D10991
:100410000FB6F894DEBF0FBECDBF9E012B573F4FE6
:10042000F901419151919F0160E870E0CE01019680
:100430000E94190ABE016F5F7F4F88E296E00E941A
:100440001005C058DF4F0FB6F894DEBF0FBECDBF0A
:10045000DF91CF91089526E040E855E260E070E03A
:1004600088E296E00E94ED0360E472E48FE090E0A1
:100470000C9418050E94E6020E942B0284E692E08A
:100480009F938F930E94020286E792E09F938F933F
:100490000E94020285E692E09F938F930E940202DF
:1004A00080E00E9476050F900F900F900F900F90B4
:1004B0000F9090E080E00895FC0111821082148278
:1004C000738362830895CF93DF93EC0188819981D0
:1004D000019781F48AEF92E09F938F930E9402022A
:1004E000CE0104960E9406068A819B810E943206F4
:1004F0000F900F9081E090E099838883DF91CF91F6
:100500000895FC0180819181019749F41182108244
:100510008481882321F0628173810C946D06089593
:100520001F920F920FB60F9211242F933F938F9328
:100530009F93AF93BF938091200690912106A09145
:100540002206B091230630911F0623E0230F2D379A
:1005500058F50196A11DB11D20931F06809320061A
:1005600090932106A0932206B0932306809124063F
:1005700090912506A0912606B09127060196A11D0F
:10058000B11D8093240690932506A0932606B09370
:100590002706BF91AF919F918F913F912F910F901F
:1005A0000FBE0F901F90189526E8230F0296A11DED
:1005B000B11DD2CF2FB7F89460912006709121061B
:1005C00080912206909123062FBF0895789484B5D8
:1005D000826084BD84B5816084BD85B5826085BD3F
:1005E00085B5816085BDEEE6F0E080818160808325
:1005F000E1E8F0E010828081826080838081816008
:100600008083E0E8F0E0808181608083E1EBF0E0CE
:10061000808184608083E0EBF0E080818160808372
:10062000EAE7F0E08081846080838081826080835B
:100630008081816080838081806880831092C10086
:100640000895FC01918D228D892F90E0805C9F4F51
:10065000821B91098F7399270895FC01918D828DDA
:10066000981731F0828DE80FF11D858D90E0089587
:100670008FEF9FEF0895FC01918D828D981761F0A7
:10068000A28DAE0FBF2FB11D5D968C91928D9F5F95
:100690009F73928F90E008958FEF9FEF0895FC0174
:1006A000538D448D252F30E0842F90E0821B930BD7
:1006B000541710F0CF96089501970895FC01A48D6A
:1006C000A80FB92FB11DA35ABF4F2C91848D90E074
:1006D00001968F739927848FA689B7892C93A08957
:1006E000B1898C91837080648C93938D848D9813E1
:1006F00006C00288F389E02D80818F7D8083089574
:10070000CF93DF93EC01888D8823B9F0AA89BB8948
:10071000E889F9898C9185FD03C0808186FD0DC033
:100720000FB607FCF7CF8C9185FFF2CF808185FF54
:10073000EDCFCE010E945E03E9CFDF91CF91089506
:10074000EF92FF920F931F93CF93DF93EC0181E021
:10075000888F9B8D8C8D98131AC0E889F9898081C8
:1007600085FF15C09FB7F894EE89FF896083E889FB
:10077000F98980818370806480839FBF81E090E0ED
:10078000DF91CF911F910F91FF90EF900895F62E7A
:100790000B8D10E00F5F1F4F0F731127E02E8C8D14
:1007A0008E110CC00FB607FCFACFE889F989808159
:1007B00085FFF5CFCE010E945E03F1CFEB8DEC0FEC
:1007C000FD2FF11DE35AFF4FF0829FB7F8940B8F76
:1007D000EA89FB8980818062CFCFCF92DF92EF924E
:1007E000FF921F93CF93DF93EC016A017B01122FDD
:1007F000E889F98982E08083C11481EED806E1049A
:10080000F104A1F060E079E08DE390E0A7019601AA
:100810000E94F10921503109410951095695479526
:1008200037952795211580E1380798F0E889F989EF
:10083000108260E874E88EE190E0A70196010E94C2
:10084000F1092150310941095109569547953795CC
:100850002795EC85FD853083EE85FF852083188EF6
:10086000EC89FD891083EA89FB898081806180831E
:10087000EA89FB89808188608083EA89FB8980819D
:1008800080688083EA89FB8980818F7D8083DF9106
:10089000CF911F91FF90EF90DF90CF9008951F921E
:1008A0000F920FB60F9211242F938F939F93EF9374
:1008B000FF93E0913806F09139068081E0913E0681
:1008C000F0913F0682FD1BC09081809141068F5FB1
:1008D0008F7320914206821741F0E0914106F0E0CB
:1008E000E85DF94F958F80934106FF91EF919F91BD
:1008F0008F912F910F900FBE0F901F9018958081B0
:10090000F4CF1F920F920FB60F9211242F933F93A3
:100910004F935F936F937F938F939F93AF93BF9307
:10092000EF93FF9388E296E00E945E03FF91EF91C0
:10093000BF91AF919F918F917F916F915F914F91F7
:100940003F912F910F900FBE0F901F901895E8E2E6
:10095000F6E01382128288EE93E0A0E0B0E0848398
:100960009583A683B7838BE093E09183808385ECA6
:1009700090E09587848784EC90E09787868780EC69
:1009800090E0918B808B81EC90E0938B828B82EC5A
:1009900090E0958B848B86EC90E0978B868B118E04
:1009A000128E138E148E0895AF92BF92CF92DF9263
:1009B000EF92FF920F931F93CF93DF936C017B0114
:1009C0008B01040F151FEB015E01AE18BF08C017A5
:1009D000D10759F06991D601ED91FC910190F08118
:1009E000E02DC6010995892B79F7C501DF91CF91DB
:1009F0001F910F91FF90EF90DF90CF90BF90AF903D
:100A00000895FB0101900020E9F73197AF01461BE3
:100A1000570BDC01ED91FC910280F381E02D0994EC
:100A20006115710511F00C94010590E080E00895C6
:100A30001092810010928000109282001092850026
:100A400010928400611520E1720781059105A0F4E0
:100A5000E4E0660F771FEA95E1F76150710981E0E4
:100A600092E096BB90936F0070938900609388002A
:100A70008860809381000895611520E872078105E0
:100A8000910530F4660F771F6150710982E0E8CF5D
:100A90006C3F2FEF720723E08207910558F442E084
:100AA00096958795779567954A95D1F76150710925
:100AB00083E0D6CF6115710520E18207910558F4D6
:100AC00034E096958795779567953A95D1F761507B
:100AD000710984E0C5CF26E096958795779567954F
:100AE0002A95D1F76150710985E0BACF0F931F9312
:100AF000CF93DF9300D0CDB7DEB7E0919102F091B4
:100B000092029FB7F89420853185232B51F09FBF27
:100B100081E090E00F900F90DF91CF911F910F91A6
:100B2000089527EC39E03A832983009193021091CC
:100B3000940221E030E0318720878287808591858B
:100B4000019721F482E090E09187808780859185EC
:100B5000029751F4F80162817381AB01C8010E94D0
:100B6000A800C8010E94DD0790E080E0D3CFFF928B
:100B70000F931F93CF93DF9390E020918B023091DE
:100B80008C028217930728F52091890230918A02FE
:100B9000880F991F820F931FFC0100811181F801BA
:100BA000878190850297A8F4FFB6F894C8010E9447
:100BB000CB07EC01892B29F4B80187E892E00E9469
:100BC0002708FFBECE01DF91CF911F910F91FF90BB
:100BD0000895C3E0D0E0F6CFE0919102F091920247
:100BE000A081B1818785882319F0178685858FBFFD
:100BF0008189882311F0118A78948FB7F8946FEA6D
:100C000079E012968D919C910E94C800CF93DF935A
:100C1000DC01E0919102F09192028EE090E0109759
:100C200059F0C081D1818F8198858230910538F447
:100C30009E819C9390E080E0DF91CF910895029790
:100C400041F40680F781E02D0190F081E02D30978E
:100C500011F49FEFEECFC281D3818F8198850297E7
:100C600098F7E6CFDF92EF92FF920F931F93CF9307
:100C7000DF930091910210919202F801E080F180DF
:100C8000F701C481D581DFB6F894288539852823FA
:100C90003923232BB9F49F838E83B8016E5F7F4F76
:100CA00081E992E00E94A3079B878A8783E090E016
:100CB0009B838A83F80160817181C7010E946E095C
:100CC0001F821E82DFBE90E080E0DF91CF911F91F6
:100CD0000F91FF90EF90DF9008951F93CF93DF93D4
:100CE00000D0CDB7DEB790E020918B0230918C021E
:100CF0008217930760F083E090E09A83898389816B
:100D00009A810F900F90DF91CF911F9108952091BC
:100D1000890230918A02880F991F820F931FFC016C
:100D2000808191811FB7F894AE014F5F5F4F0E94A1
:100D3000F207009759F0BC0187E892E00E947F0813
:100D4000892B21F087E892E00E941B091FBFD7CFB3
:100D5000DC011496ED91FC9184E090E09383828312
:100D60000895EC01EC81FD81818124E030E0338342
:100D700022838F3F09F07894E985FA850995E091FF
:100D80009102F0919202108A8785882319F01786C4
:100D900085858FBF8189882311F0118A78948FB758
:100DA000F8948F819885EC81FD81029709F5A481E3
:100DB000B581109731F46FEA79E08A819B810E94B6
:100DC000C8000D90BC91A02D14961C921E921397F2
:100DD0008D919C9195838483EACF0D90BC91A02D39
:100DE00014961C921E9213978D919C9195838483E7
:100DF000A481B581109789F7DECFE0919102F0913F
:100E00009202808591850297E1F3809193029091FF
:100E100094020C9494090F931F93CF93DF93EC01EA
:100E2000A881B981EB01E881F9811696CD91DC9119
:100E300017972097C1F18A819B81309709F43FC0B1
:100E4000EC010C811D8122813381E9014C815D819E
:100E5000E8013981EA012981321788F522E030E082
:100E6000E8013B832A8320813181EB013983288388
:100E7000C281D3812C813D8116964D915C9117974B
:100E8000518340831796FC93EE931697CD93DC9392
:100E90004C85F9015181541708F44183DF91CF91BA
:100EA0001F910F910895309751F0EC018A819B8139
:100EB000EC014C815D8122E030E0EA01D2CF90E08C
:100EC00080E0ECCFCF93DF93DB011296ED91FC91A4
:100ED00041155105A1F02385DC01ED91FC91B0E0B5
:100EE000A0E0309789F4109709F16D937C9390E01E
:100EF00080E0DB01ED93FC93DF91CF9108950480B6
:100F0000F581E02D2181E8CFC281D38141155105C2
:100F100041F03B85321738F3DF010190F081E02D7D
:100F2000E0CF0C80DD81C02D3981F4CFDC016D93E1
:100F30007C9381E090E0DDCFFB015383428341E06D
:100F400050E00C946207EF92FF920F931F93CF93A0
:100F5000DF938C01FC01C081D181EE80FF80F7011D
:100F6000808191819F838E83C8010E940B07892B0A
:100F700041F4EE81FF81309761F082819381998302
:100F80008883C701DF91CF911F910F91FF90EF9060
:100F90000895F801F2CFDC011496ED91FC911597BC
:100FA00090811D968C91981728F49F5F908390E014
:100FB00080E0089584E090E00895DC011496ED91BE
:100FC000FC9115971B968C91818380818150808341
:100FD000811103C013821282089581E090E093830F
:100FE00082830895DC011496ED91FC9180859185B2
:100FF000862B972B91878087DA011D921C92868120
:10100000978168237923672B39F082859385009730
:1010100029F013861286089590E080E00895E0910B
:101020008902F0918A0290E0880F991FE80FF91F5A
:1010300060817181DB011496ED91FC9180818F5F5D
:10104000808350E040E087E892E00C943609EF920C
:10105000FF920F931F93CF93DF93DB011496ED90D4
:10106000FC90E0919102F091920280819181EC01DB
:101070004C815D81A481B5812D913C911197EA014C
:101080000981E7011981011710F53583248322E0D6
:1010900030E0EA013B832A8313967C936E93129788
:1010A0002681378111963C932E93B783A683718353
:1010B0006083F701118610860E946E0981E090E03E
:1010C000DF91CF911F910F91FF90EF9008958A814A
:1010D0009B81892B31F481E090E09B838A83198680
:1010E00018863583248311961C921E92AB01BD0194
:1010F000CF0102960E949C0790E080E0E1CF0F9321
:101100001F93CF93DF93DB0112964D915C91FA010F
:10111000C481D581009191021091920282E090E009
:101120009B838A8383858983C80102960E949C07DA
:10113000019791F4D801ED91FC910480F581E02DA7
:1011400081E090E039812181231708F080E0DF9170
:10115000CF911F910F91089580E090E0F8CFAF926A
:10116000BF92CF92DF92EF92FF920F931F93CF9394
:10117000DF93C0919102D0919202FE01E190F19033
:101180006F01F70104811581FB01F182E082F80112
:1011900082819381049731F5B60181E992E00E9442
:1011A000A3075C01C880D980EC14FD04B1F0C7012D
:1011B0000E94DD078C819D81F50191838083BD8232
:1011C000AC82C601DF91CF911F910F91FF90EF90FC
:1011D000DF90CF90BF90AF900895F801808181504B
:1011E0008083E8CF6E817F81FB01808191819F8325
:1011F0008E83F7018385F801818381E090E09383FA
:1012000082838081813011F411861086A701C60186
:101210000E949C07B60181E992E00E940B07892B8E
:1012200039F4EE81FF81C280D380D982C882C9CFD0
:10123000C880D980C6CFCF93DF93C0919102D0915F
:101240009202BE016E5F7F4F81E992E00E940B0720
:10125000009749F0688179810E946E0981E090E0F1
:10126000DF91CF91089590E080E0FACFCF93DF93A4
:10127000E0919102F09192028081918126813781E3
:10128000EC01AC81BD811296CD91DC91139724972E
:1012900031F4C2E0D0E01396DC93CE9312977183C1
:1012A000608341155105B9F4A481B5814D915C91DC
:1012B00011975583448311961C921E92B783A6837F
:1012C0000680F781E02D7383628331832083DF9171
:1012D000CF910C946E0957834683F2CFFB01DC015A
:1012E00012964D915C9162817381A481B5811296B1
:1012F0008D919C91029719F4CF010C946000CF015D
:101300000C94A800CB01DB0112966D917C91139790
:101310001496ED91FC91228133812230310511F434
:101320000C9480000C94A000DC0112966D917C91CD
:101330001397ED91FC9140815181DB01ED91FC917E
:10134000228933892115310519F04217530729F4F1
:10135000DB01ED93FC930C948000F901F1CFCF9366
:10136000DF9300D0CDB7DEB7BE016F5F7F4F87E858
:1013700092E00E94AF08BC0189819A810E94820993
:101380000F900F90DF91CF910895F894FFCFEAE886
:1013900008958F939F9380E00E94D1099F918F9130
:1013A00018951F920F920FB60F9211242F933F930F
:1013B0004F935F936F937F93AF93BF93EF93FF939D
:1013C0000E940F08FF91EF91BF91AF917F916F91B4
:1013D0005F914F913F912F910F900FBE0F901F90F3
:1013E0000895A1E21A2EAA1BBB1BFD010DC0AA1F66
:1013F000BB1FEE1FFF1FA217B307E407F50720F07E
:10140000A21BB30BE40BF50B661F771F881F991FF8
:101410001A9469F760957095809590959B01AC0141
:10142000BD01CF010895EE0FFF1F0590F491E02D4F
:101430000994AEE0B0E0EFE1FAE00C94D10C8C013D
:10144000FA0186E08C831A83098377FF02C060E08B
:1014500070E8615071097E836D83A901BF01CE01DF
:1014600001960E94450A4D815E8157FD0AC02F8179
:101470003885421753070CF49A01020F131FF80125
:1014800010822E96E4E00C94ED0CABE0B0E0EBE4BF
:10149000FAE00C94C30C7C013B018A01FC01178229
:1014A0001682838181FFC8C1CE0101965C01F701DC
:1014B0009381F30193FD859193FF81913F018823EF
:1014C00009F453C1853239F493FD859193FF8191DD
:1014D0003F01853229F4B70190E00E94350CE7CF37
:1014E000912C212C312CFFE1F31538F08B3211F1C6
:1014F00090F4803209F1833229F137FC3CC020EDB1
:10150000280F2A3050F536FE20C08AE0989E200D24
:101510001124922E06C08D3291F0803371F76894B9
:1015200030F8F30193FD859193FF81913F01811183
:10153000DACF21C0689431F8689432F8F2CF689419
:1015400033F8EFCF689434F8ECCFEAE02E9E200D0C
:101550001124222E689435F8E4CF8E3229F436FC1B
:1015600004C1689436F8DDCF8C3619F4689437F8E6
:10157000D8CF8836B1F2982F9F7D95549330E0F004
:101580008336A1F18337C1F1833509F063C02801A7
:10159000F2E04F0E511CF801C080D180692D70E03F
:1015A00036FC02C06FEF7FEFC6010E941F0C4C019A
:1015B000689437F882010AC00C5F1F4FFFE3F9837C
:1015C00088248394912C6501E89437F833FE2DC06C
:1015D000522C8114910471F5552009F468CFB7019C
:1015E00080E290E00E94350C5A94F6CFF801808199
:1015F00089830E5F1F4FE4CF2801F2E04F0E511C8C
:10160000F801C080D180692D70E036FC02C06FEF18
:101610007FEFC6010E942A0C4C018201D5CFB70191
:1016200080E290E00E94350C2A942814190409F0F5
:10163000B0F7CECFF60137FC859137FE81916F016F
:10164000B70190E00E94350C51105A94F1E08F1AC6
:101650009108BFCF843619F0893609F077C0F801B8
:1016600037FE6BC060817181828193810C5F1F4F57
:10167000F32DFF763F2E97FF09C0909580957095CA
:1016800061957F4F8F4F9F4F689437F82AE030E085
:10169000A5010E94650CC82ECA188C2C432C36FE5E
:1016A0000CC0E89440F8C91440F434FE05C032FC84
:1016B00003C0F32DFE7E4F2E892C44FE95C0FE0103
:1016C000EC0DF11D8081803309F087C0242D297E27
:1016D000422E842D8870582E43FC95C040FE8FC04A
:1016E0009C2C821418F42C0C922C981844FE91C057
:1016F000B70180E390E00E94350C42FE09C088E704
:1017000090E041FE02C088E590E0B7010E94350CF0
:10171000C91408F48AC0CA94D12C9FEFC91AD90AF7
:10172000CA0CDB1CF60182916F01B70190E00E94A8
:10173000350CAC14BD04B1F74FCF60817181072E19
:10174000000C880B990B0E5F1F4F92CFD32CE8949F
:10175000D4F82AE030E0853739F1232D297FD22EC5
:101760008F3601F148F48835A9F0F7018681978119
:101770002B96E2E10C94DF0C803749F08837A9F70B
:10178000D4FE02C06894D2F820E130E00DC0689425
:10179000D4F8F6CF34FE03C0822F8660D82E20E125
:1017A00032E002C028E030E0F801D7FE0FC06081CF
:1017B0007181828193810C5F1F4FA5010E94650C8E
:1017C000C82ECA183D2CE89437F867CF6081718124
:1017D00090E080E00E5F1F4FF0CF42FC02C0839488
:1017E00078CF8394839475CF842D867809F471CF54
:1017F000F6CFB70180E290E00E94350C839482140A
:10180000C0F3512C73CF522C5818821408F46ECFA9
:10181000F8CF842D867809F47BCF8BE241FE80E2FD
:1018200047FC8DE2B70190E071CFB70180E390E013
:101830000E94350C9A946CCF8FEF9FEF99CFFC01EB
:101840000590615070400110D8F7809590958E0FEB
:101850009F1F0895FC016150704001900110D8F75E
:10186000809590958E0F9F1F08950F931F93CF9390
:10187000DF93182F092FEB018B8181FD09C01FEF2A
:101880000FEF812F902FDF91CF911F910F9108952E
:1018900082FF14C02E813F818C819D8128173907DA
:1018A0003CF4E881F981CF01019699838883108304
:1018B0008E819F8101969F838E83E3CFE885F98592
:1018C000812F0995892BA1F3DACFFA01AA272830B5
:1018D00051F1203181F1E8946F936E7F6E5F7F4FFD
:1018E0008F4F9F4FAF4FB1E03ED0B4E03CD0670F79
:1018F000781F891F9A1FA11D680F791F8A1F911DCC
:10190000A11D6A0F711D811D911DA11D20D009F41B
:1019100068943F912AE0269F11243019305D31935D
:10192000DEF6CF010895462F4770405D4193B3E046
:101930000FD0C9F7F6CF462F4F70405D4A3318F0ED
:10194000495D31FD4052419302D0A9F7EACFB4E09E
:10195000A6959795879577956795BA95C9F7009756
:101960006105710508959B01AC010A2E06945795F7
:10197000479537952795BA95C9F7620F731F841F4E
:10198000951FA01D08952F923F924F925F926F92E4
:101990007F928F929F92AF92BF92CF92DF92EF92FF
:1019A000FF920F931F93CF93DF93CDB7DEB7CA1B80
:1019B000DB0B0FB6F894DEBF0FBECDBF09942A88AB
:1019C000398848885F846E847D848C849B84AA8453
:1019D000B984C884DF80EE80FD800C811B81AA81E0
:1019E000B981CE0FD11D0FB6F894DEBF0FBECDBFAB
:0819F000ED010895F894FFCF0A
:1019F800FBFFFFFFDC020000160100000000FF00F3
:101A08000000000000001A0100001E010000220171
:101A1800000000000000008000000000000000003E
:101A280000000003000000000000000000000002A9
:101A3800000000000000000000000001000000009D
:101A48000000000000000100040000000000000089
:101A580000001E061E051E0400000A25346C643AA8
:101A680020003C5461736B4820626567696E732E71
:101A78003E20005461736B48203A20547279204C00
:101A88006F636B284D31292E20005461736B4820F9
:101A98003A20476574204C6F636B284D31292E20FE
:101AA800005461736B48203A2052656C6561736518
:101AB800204C6F636B284D31292E20003C546173F4
:101AC8006B4820656E64732E3E20003C5461736B36
:101AD8004D20626567696E732E3E20003C54617329
:101AE8006B4D20656E64732E3E20003C5461736B11
:101AF8004C20626567696E732E3E20005461736BDB
:101B08004C203A20547279204C6F636B284D312950
:101B18002E20005461736B4C203A20476574204C8A
:101B28006F636B284D31292E20005461736B4C2054
:101B38003A2052656C65617365204C6F636B284D64
:101B480031292E20003C5461736B4C20656E647300
:101B58002E3E20000A2E2E2E2E2E2E2E2E2E2E2EED
:101B68002E2E2E2E0A002E2E2E4F532053746172C5
:101B780074732E2E2E0A00CA069A020500950201D9
:101B8800000401DC0297021A0303A402B202C00295
:101B9800CE02DC02F60268012601000200D20080B3
:101BA8008001EA02620132010101001E0103030102
:101BB800EE0264013E010200006001020201F2022D
:101BC80066014A010301007801010101F60268017A
:101BD8005601040300FD060000011F0500011F0453
:101BE80000011F0300010000000020202D2D3E20D1
:101BF80020424C6F636B0000000000A003D4044F28
:0A1C080003800321033B032D0300BA
:00000001FF
