S00F000061726475696E6F2E7372656323
S11300000C9435000C945D000C945D000C945D0020
S11300100C945D000C945D000C945D000C945D00E8
S11300200C945D000C945D000C945D000C94340BF6
S11300300C945D000C945D000C945D000C945D00C8
S11300400C9413020C945D000C94D2030C940404DD
S11300500C945D000C945D000C945D000C945D00A8
S11300600C945D000C945D002A0411241FBECFEF94
S1130070D8E0DEBFCDBF12E0A0E0B1E0EEECFCE1E1
S113008002C005900D92AA38B107D9F725E0AAE875
S1130090B2E001C01D92A234B207E1F710E0C5E35B
S11300A0D0E004C02197FE010E947E0BC433D10727
S11300B0C9F70E94F1010C94650E0C94300B0000FA
S11300C02F923F924F925F926F927F928F929F9264
S11300D0AF92BF92CF92DF92EF92FF920F931F9352
S11300E0CF93DF93E42FF52F419050804F925F928E
S11300F0E42FF52F4DB65EB6419250820C948000E9
S1130100E62FF72F419050804DBE5EBE5F904F901A
S1130110E62FF72F41925082DF91CF911F910F91DB
S1130120FF90EF90DF90CF90BF90AF909F908F9013
S11301307F906F905F904F903F902F900C94790632
S1130140E62FF72F419150814DBF5EBF0C9482067C
S11301502F923F924F925F926F927F928F929F92D3
S1130160AF92BF92CF92DF92EF92FF920F931F93C1
S1130170CF93DF93E42FF52F419050804F925F92FD
S1130180E42FF52F4DB65EB6419250820C94A00038
S1130190E82FF92F419150814DBF5EBFE62FF72F15
S11301A00994000086E591E09F938F930E94B90122
S11301B068EB7BE080E090E00E94710182E00E94A5
S11301C0800568EB7BE080E090E00E94710186E6A8
S11301D091E09F938F930E94B9010F900F900F901D
S11301E00F900C94B505CF93DF9300D0CDB7DEB755
S11301F088E791E09F938F930E94B90188E891E08A
S11302009F938F930E94B90181E090E00E94CF05F3
S113021087E991E09F938F930E94B901BE016F5FBC
S11302207F4F82E00E940A0689810F900F900F9001
S11302300F900F900F9080FF0CC089EA91E09F937C
S11302408F930E94B90181E090E00E9431060F90E3
S11302500F9082EB91E09F938F930E94B9010E94CB
S1130260B5050F900F900F900F90DF91CF910895E7
S11302708091000190910101A0910201B0910301CC
S1130280892B8A2B8B2B19F481E00E94800580E056
S11302900E944A068091000190910101A0910201FF
S11302A0B0910301AC01BD014F5F5F4F6F4F7F4FB2
S11302B04093000150930101609302017093030184
S11302C0BF93AF939F938F9384EC91E09F938F930D
S11302D00E94B9010F900F900F900F900F900F9004
S11302E008954F925F926F927F928F929F92AF92F6
S11302F0BF92CF92DF92EF92FF926B017C010E943A
S11303005D024B015C010E945D02C701B60124E15C
S113031030E040E050E00E945C0B29013A01C12C1E
S1130320D12C76014C145D046E047F04A9F00E9464
S11303305D02681979098A099B096431710581058F
S1130340910580F38FEFC81AD80AE80AF80A0E94C8
S11303505D024B015C01E6CFFF90EF90DF90CF9000
S1130360BF90AF909F908F907F906F905F904F90D1
S11303700895CF93DF93CDB7DEB7C058D1090FB638
S1130380F894DEBF0FBECDBF9E012B573F4FF9013E
S1130390419151919F0160E870E0CE0101960E9465
S11303A0840BBE016F5F7F4F84EA94E00E94930444
S11303B0C058DF4F0FB6F894DEBF0FBECDBFDF913C
S11303C0CF91089526E040E855E260E070E084EAC9
S11303D094E00E94700360E472E48FE090E00C9477
S11303E09B040E9469020E94E2018CEC91E09F93BD
S11303F08F930E94B9018EED91E09F938F930E9499
S1130400B9018DEC91E09F938F930E94B90180E034
S11304100E94F9040F900F900F900F900F900F907F
S113042090E080E008951F920F920FB60F9211246E
S11304302F933F938F939F93AF93BF9380919C048B
S113044090919D04A0919E04B0919F0430919B04CF
S113045023E0230F2D3758F50196A11DB11D2093DC
S11304609B0480939C0490939D04A0939E04B0935A
S11304709F048091A0049091A104A091A204B09142
S1130480A3040196A11DB11D8093A0049093A1041F
S1130490A093A204B093A304BF91AF919F918F91B5
S11304A03F912F910F900FBE0F901F90189526E843
S11304B0230F0296A11DB11DD2CF2FB7F8946091DE
S11304C09C0470919D0480919E0490919F042FBF81
S11304D00895789484B5826084BD84B5816084BDB8
S11304E085B5826085BD85B5816085BDEEE6F0E0A9
S11304F0808181608083E1E8F0E010828081826005
S11305008083808181608083E0E8F0E08081816085
S11305108083E1EBF0E0808184608083E0EBF0E0B5
S1130520808181608083EAE7F0E080818460808359
S11305308081826080838081816080838081806803
S113054080831092C1000895FC01918D228D892F22
S113055090E0805C9F4F821B91098F7399270895C7
S1130560FC01918D828D981731F0828DE80FF11D79
S1130570858D90E008958FEF9FEF0895FC01918D94
S1130580828D981761F0A28DAE0FBF2FB11D5D96BD
S11305908C91928D9F5F9F73928F90E008958FEF5F
S11305A09FEF0895FC01538D448D252F30E0842F57
S11305B090E0821B930B541710F0CF960895019787
S11305C00895FC01A48DA80FB92FB11DA35ABF4FE4
S11305D02C91848D90E001968F739927848FA6893E
S11305E0B7892C93A089B1898C91837080648C9392
S11305F0938D848D981306C00288F389E02D808141
S11306008F7D80830895CF93DF93EC01888D8823B9
S1130610B9F0AA89BB89E889F9898C9185FD03C061
S1130620808186FD0DC00FB607FCF7CF8C9185FF46
S1130630F2CF808185FFEDCFCE010E94E102E9CFA8
S1130640DF91CF910895EF92FF920F931F93CF9371
S1130650DF93EC0181E0888F9B8D8C8D98131AC0F9
S1130660E889F989808185FF15C09FB7F894EE89E0
S1130670FF896083E889F98980818370806480833D
S11306809FBF81E090E0DF91CF911F910F91FF9088
S1130690EF900895F62E0B8D10E00F5F1F4F0F7330
S11306A01127E02E8C8D8E110CC00FB607FCFACFEB
S11306B0E889F989808185FFF5CFCE010E94E102A6
S11306C0F1CFEB8DEC0FFD2FF11DE35AFF4FF082BC
S11306D09FB7F8940B8FEA89FB8980818062CFCF22
S11306E0CF92DF92EF92FF921F93CF93DF93EC01AF
S11306F06A017B01122FE889F98982E08083C114A1
S113070081EED806E104F104A1F060E079E08DE324
S113071090E0A70196010E945C0B21503109410928
S113072051095695479537952795211580E1380746
S113073098F0E889F989108260E874E88EE190E025
S1130740A70196010E945C0B21503109410951090E
S11307505695479537952795EC85FD853083EE852D
S1130760FF852083188EEC89FD891083EA89FB8933
S1130770808180618083EA89FB89808188608083AD
S1130780EA89FB89808180688083EA89FB8980818A
S11307908F7D8083DF91CF911F91FF90EF90DF9049
S11307A0CF9008951F920F920FB60F9211242F939A
S11307B08F939F93EF93FF93E091B404F091B5046A
S11307C08081E091BA04F091BB0482FD1BC090814A
S11307D08091BD048F5F8F732091BE04821741F016
S11307E0E091BD04F0E0EC55FB4F958F8093BD0480
S11307F0FF91EF919F918F912F910F900FBE0F90CA
S11308001F9018958081F4CF1F920F920FB60F920C
S113081011242F933F934F935F936F937F938F9301
S11308209F93AF93BF93EF93FF9384EA94E00E9466
S1130830E102FF91EF91BF91AF919F918F917F91D1
S11308406F915F914F913F912F910F900FBE0F9039
S11308501F901895E4EAF4E01382128288EE93E084
S1130860A0E0B0E084839583A683B7838CE792E00D
S11308709183808385EC90E09587848784EC90E075
S11308809787868780EC90E0918B808B81EC90E059
S1130890938B828B82EC90E0958B848B86EC90E03A
S11308A0978B868B118E128E138E148E0895AF92B1
S11308B0BF92CF92DF92EF92FF920F931F93CF9349
S11308C0DF936C017B018B01040F151FEB015E01AB
S11308D0AE18BF08C017D10759F06991D601ED9140
S11308E0FC910190F081E02DC6010995892B79F7DF
S11308F0C501DF91CF911F910F91FF90EF90DF9091
S1130900CF90BF90AF900895FB0101900020E9F7CC
S11309103197AF01461B570BDC01ED91FC9102802E
S1130920F381E02D09946115710511F00C94840490
S113093090E080E00895109281001092800010925F
S113094082001092850010928400611520E17207E4
S113095081059105A0F4E4E0660F771FEA95E1F7BD
S11309606150710981E092E096BB90936F0070939F
S113097089006093880088608093810008956115E0
S113098020E872078105910530F4660F771F6150E6
S1130990710982E0E8CF6C3F2FEF720723E08207F2
S11309A0910558F442E096958795779567954A9511
S11309B0D1F76150710983E0D6CF6115710520E14B
S11309C08207910558F434E0969587957795679555
S11309D03A95D1F76150710984E0C5CF26E0969528
S11309E08795779567952A95D1F76150710985E0C8
S11309F0BACF7F928F929F92AF92BF92CF92DF92A3
S1130A00EF92FF920F931F93CF93DF9300D0CDB754
S1130A10DEB700910102109102029FB7F894D80149
S1130A2018962D913C91232B99F09FBF81E090E083
S1130A300F900F90DF91CF911F910F91FF90EF9046
S1130A40DF90CF90BF90AF909F908F907F9008954C
S1130A5022E33BE03A832983C0900302D09004024E
S1130A6021E030E0F801318720878287E091050298
S1130A70F091060224E0829FC0011124E80FF91FBF
S1130A80A280B380F12CE12C4F0186E0782EEA1489
S1130A90FB04E1F4F80180859185019721F482E05B
S1130AA090E091878087D80118968D919C91029748
S1130AB051F4F60162817381AB01C6010E94A80062
S1130AC0C6010E94AE0790E080E0B2CFD401ED9160
S1130AD0FC917E9CC0017F9C900D1124E80FF91FAE
S1130AE0A081B1812481358142815381BD01129657
S1130AF08D919C910E949F0ABFEFEB1AFB0AC7CF0E
S1130B00FF920F931F93CF93DF9390E02091F30113
S1130B103091F4018217930728F52091F101309167
S1130B20F201880F991F820F931FFC01008111812C
S1130B30F801878190850297A8F4FFB6F894C8015C
S1130B400E949C07EC01892B29F4B8018FEE91E0F7
S1130B500E94F807FFBECE01DF91CF911F910F9144
S1130B60FF900895C3E0D0E0F6CFE0910102F09148
S1130B700202A081B1818785882319F017868585B3
S1130B808FBF8189882311F0118A78948FB7F894E4
S1130B906AE17BE012968D919C910E94C800DF92DD
S1130BA0EF92FF920F931F93CF93DF930091010273
S1130BB010910202F801E080F180F701C481D5812F
S1130BC0DFB6F8942885398528233923232BB9F4F3
S1130BD09F838E83B8016E5F7F4F81E092E00E9415
S1130BE074079B878A8783E090E09B838A83F8015C
S1130BF060817181C7010E94D90A1F821E82DFBEF3
S1130C0090E080E0DF91CF911F910F91FF90EF90E2
S1130C10DF90089590E02091F3013091F401821760
S1130C209307C8F42091F1013091F201880F991FC4
S1130C30820F931FDC01ED91FC910480F581E02D7E
S1130C406115710559F080859185FB01918380833D
S1130C5090E080E0089583E090E008958EE090E0D5
S1130C600895E0910102F09102020190F081E02DDB
S1130C700480F581E02D4FB7F8949C0120953095C0
S1130C808085918582239323918780874FBF90E04D
S1130C9080E00895CF9390E02091FB013091FC0116
S1130CA08217930718F52091F9013091FA01880F02
S1130CB0991F820F931FFC0180819181CFB7F89413
S1130CC00E94D909E0910102F09102020190F081A1
S1130CD0E02D87819085029720F48FEE91E00E94A9
S1130CE01309CFBF90E080E0CF91089583E090E0B6
S1130CF0FBCFDC011496ED91FC9184E090E09383AA
S1130D0082830895EC01EC81FD81818124E030E04F
S1130D10338322838F3F09F07894E985FA85099516
S1130D20E0910102F0910202108A8785882319F06C
S1130D30178685858FBF8189882311F0118A78945D
S1130D408FB7F8948F819885EC81FD81029709F51E
S1130D50A481B581109731F46AE17BE08A819B819B
S1130D600E94C8000D90BC91A02D14961C921E9256
S1130D7013978D919C9195838483EACF0D90BC91B8
S1130D80A02D14961C921E9213978D919C9195837D
S1130D908483A481B581109789F7DECFE0910102A5
S1130DA0F0910202808591850297E1F3809103021C
S1130DB0909104020C94FF0A0F931F93CF93DF9337
S1130DC0EC01A881B981EB01E881F9811696CD91F6
S1130DD0DC9117972097C1F18A819B81309709F4A0
S1130DE03FC0EC010C811D8122813381E9014C81DA
S1130DF05D81E8013981EA012981321788F522E011
S1130E0030E0E8013B832A8320813181EB0139837F
S1130E102883C281D3812C813D8116964D915C91AA
S1130E201797518340831796FC93EE931697CD93AF
S1130E30DC934C85F9015181541708F44183DF9107
S1130E40CF911F910F910895309751F0EC018A8151
S1130E509B81EC014C815D8122E030E0EA01D2CF3C
S1130E6090E080E0ECCFCF93DF93DB011296ED911D
S1130E70FC9141155105A1F02385DC01ED91FC9114
S1130E80B0E0A0E0309789F4109709F16D937C935A
S1130E9090E080E0DB01ED93FC93DF91CF91089526
S1130EA00480F581E02D2181E8CFC281D3814115F1
S1130EB0510541F03B85321738F3DF010190F08191
S1130EC0E02DE0CF0C80DD81C02D3981F4CFDC0131
S1130ED06D937C9381E090E0DDCFFB0153834283EB
S1130EE041E050E00C943307EF92FF920F931F936D
S1130EF0CF93DF938C01FC01C081D181EE80FF8010
S1130F00F701808191819F838E83C8010E94DC0652
S1130F10892B41F4EE81FF81309761F082819381C6
S1130F2099838883C701DF91CF911F910F91FF901F
S1130F30EF900895F801F2CFDC011496ED91FC9145
S1130F40159790811D968C91981728F49F5F908334
S1130F5090E080E0089584E090E00895DC01149628
S1130F60ED91FC9115971B968C9181838081815022
S1130F708083811103C013821282089581E090E07E
S1130F80938382830895DC011496ED91FC9180850E
S1130F909185862B972B91878087DA011D921C926D
S1130FA08681978168237923672B39F0828593851D
S1130FB0009729F013861286089590E080E0089542
S1130FC0E091F101F091F20190E0880F991FE80F90
S1130FD0F91F60817181DB011496ED91FC91808190
S1130FE08F5F808350E040E08FEE91E00C942E09F7
S1130FF0EF92FF920F931F93CF93DF93DB0114962D
S1131000ED90FC90E0910102F091020280819181C7
S1131010EC014C815D81A481B5812D913C911197A6
S1131020EA010981E7011981011710F53583248349
S113103022E030E0EA013B832A8313967C936E938B
S113104012972681378111963C932E93B783A683FA
S113105071836083F701118610860E94D90A81E0AA
S113106090E0DF91CF911F910F91FF90EF90089541
S11310708A819B81892B31F481E090E09B838A8370
S1131080198618863583248311961C921E92AB010F
S1131090BD01CF0102960E946D0790E080E0E1CF90
S11310A0AB01FB01A481B581E0910102F091020240
S11310B012968D919C911397892B51F481E090E0C5
S11310C013969C938E93129719961C921E921897BE
S11310D0A481B5818D919C911197958384831196F8
S11310E01C921E92BD01CF0102960C946D070F93C2
S11310F01F93CF93DF93DB0112964D915C91FA011C
S1131100C481D581009101021091020282E090E035
S11311109B838A8383858983C80102960E946D0715
S1131120019791F4D801ED91FC910480F581E02DB3
S113113081E090E039812181231708F080E0DF917C
S1131140CF911F910F91089580E090E0F8CFAF9276
S1131150BF92CF92DF92EF92FF920F931F93CF93A0
S1131160DF93C0910102D0910202FE01E190F1905F
S11311706F01F70104811581FB01F182E082F8011E
S113118082819381049731F5B60181E092E00E9457
S113119074075C01C880D980EC14FD04B1F0C70168
S11311A00E94AE078C819D81F50191838083BD826D
S11311B0AC82C601DF91CF911F910F91FF90EF9008
S11311C0DF90CF90BF90AF900895F8018081815057
S11311D08083E8CF6E817F81FB01808191819F8331
S11311E08E83F7018385F801818381E090E0938306
S11311F082838081813011F411861086A701C60193
S11312000E946D07B60181E092E00E94DC06892B02
S113121039F4EE81FF81C280D380D982C882C9CFDC
S1131220C880D980C6CFCF93DF93C0910102D091FB
S11312300202BE016E5F7F4F81E092E00E94DC06F5
S1131240009749F0688179810E94D90A81E090E091
S1131250DF91CF91089590E080E0FACFCF93DF93B0
S1131260E0910102F091020280819181268137810F
S1131270EC01AC81BD811296CD91DC91139724973A
S113128031F4C2E0D0E01396DC93CE9312977183CD
S1131290608341155105B9F4A481B5814D915C91E8
S11312A011975583448311961C921E92B783A6838B
S11312B00680F781E02D7383628331832083DF917D
S11312C0CF910C94D90A57834683F2CFAF92BF9241
S11312D0CF92DF92EF92FF920F931F93CF93DF93FE
S11312E0DC01AD90BC90E501E881F9812A813B8164
S11312F0DB01CD90DC90E6015B834A8381E090E0E2
S1131300B0E0A0E0309711F00097A9F4109779F1BC
S11313100D90BC91A02D6D937C93E601F983E88335
S1131320DF91CF911F910F91FF90EF90DF90CF90BD
S1131330BF90AF90089500811181E801EA80FB809D
S11313402E153F0558F44E155F0518F4241735077C
S113135058F0DF01E801E881F981D4CF241735077B
S113136018F04E155F05A8F790E080E0CBCFD501CB
S1131370D2CFCF93DF93DC011296ED91FC911397BA
S11313800D90BC91A02D12962D913C91DF01A41BD0
S1131390B50BA217B30730F0420F531FDF91CF9163
S11313A00C94660941505109420F531F4E1B5F0BA9
S11313B0F5CF8F929F92AF92BF92CF92DF92EF922E
S11313C0FF920F931F93CF93DF9300D0CDB7DEB777
S11313D0DC01CD90DC901197F601228133811296C5
S11313E04D915C912417350708F471C01382128261
S11313F030E020E0F601008111810115110509F4A6
S113140057C0D801ED91FC91119742815381421745
S1131410530709F04DC023E0E22EF12C2D913C91AD
S1131420F901F582E482A081B181109749F06D91B0
S11314307C911197FB01628173814617570771F301
S11314407C01F90111821082F601B183A08382E04C
S1131450C82ED12CD801ED91FC911197A080B180B8
S11314601A8219821C968D919C911D978130910549
S113147009F442C088F18230910509F452C00397FF
S113148009F455C0D801ED91FC91848195810397AD
S113149061F4468157814115510509F44DC0D58247
S11314A0C482B801C7010E94B9098501AB2891F62D
S11314B00F900F90DF91CF911F910F91FF90EF90BC
S11314C0DF90CF90BF90AF909F908F9008952F5F43
S11314D03F4F338322838ECFF80186809780C401E7
S11314E00E949C079A838983892B61F6B4018FEE4D
S11314F091E00E945008C6CF1A966D917C911B977B
S1131500AE014F5F5F4F16968D919C910E94C30769
S1131510009709F4B7CFBC018FEE91E00E947708E1
S1131520B1CFF801808591850E94D909ABCF14967B
S1131530ED91FC910995A6CF15821482B6CFCF9375
S1131540DF93DB01ED91FC91A481B581A230B1055B
S113155068F537832683119711F5EC012A813B81C5
S1131560A881B98112968D919C91B901641B750B68
S11315706817790768F0480F591F5383428384E042
S113158090E09583848390E080E0DF91CF9108958B
S113159041505109480F591F421B530BEECF22E013
S11315A030E0358324830E94B909EDCF87E090E0D1
S11315B0ECCFFB01DC0112964D915C916281738149
S11315C0A481B58112968D919C91029719F4CF0153
S11315D00C946000CF010C94A800CB01DB0112969F
S11315E06D917C9113971496ED91FC912281338136
S11315F02230310511F40C9480000C94A000DC011D
S113160012966D917C911397ED91FC9140815181DB
S1131610DB01ED91FC91228933892115310519F003
S11316204217530729F4DB01ED93FC930C948000DB
S1131630F901F1CFCF93DF9300D0CDB7DEB7BE0170
S11316406F5F7F4F8FEE91E00E94A708BC018981F4
S11316509A810E94ED0A0F900F90DF91CF91089527
S1131660F894FFCFE0E608958F939F9380E00E9463
S11316703C0B9F918F9118951F920F920FB60F926A
S113168011242F933F934F935F936F937F93AF9363
S1131690BF93EF93FF930E94E007FF91EF91BF91F7
S11316A0AF917F916F915F914F913F912F910F90E7
S11316B00FBE0F901F900895A1E21A2EAA1BBB1B08
S11316C0FD010DC0AA1FBB1FEE1FFF1FA217B3070A
S11316D0E407F50720F0A21BB30BE40BF50B661F20
S11316E0771F881F991F1A9469F7609570958095E4
S11316F090959B01AC01BD01CF010895EE0FFF1F32
S11317000590F491E02D0994AEE0B0E0EAE8FBE046
S11317100C943C0E8C01FA0186E08C831A830983B5
S113172077FF02C060E070E8615071097E836D83C9
S1131730A901BF01CE0101960E94B00B4D815E81CB
S113174057FD0AC02F813885421753070CF49A01BC
S1131750020F131FF80110822E96E4E00C94580E29
S1131760ABE0B0E0E6EBFBE00C942E0E7C013B0119
S11317708A01FC0117821682838181FFC8C1CE01D0
S113178001965C01F7019381F30193FD859193FF29
S113179081913F01882309F453C1853239F493FDC3
S11317A0859193FF81913F01853229F4B70190E03F
S11317B00E94A00DE7CF912C212C312CFFE1F315D1
S11317C038F08B3211F190F4803209F1833229F12F
S11317D037FC3CC020ED280F2A3050F536FE20C0DF
S11317E08AE0989E200D1124922E06C08D3291F02D
S11317F0803371F7689430F8F30193FD859193FF7A
S113180081913F018111DACF21C0689431F8689445
S113181032F8F2CF689433F8EFCF689434F8ECCF11
S1131820EAE02E9E200D1124222E689435F8E4CF90
S11318308E3229F436FC04C1689436F8DDCF8C3638
S113184019F4689437F8D8CF8836B1F2982F9F7D71
S113185095549330E0F08336A1F18337C1F1833599
S113186009F063C02801F2E04F0E511CF801C0805A
S1131870D180692D70E036FC02C06FEF7FEFC601A6
S11318800E948A0D4C01689437F882010AC00C5FEB
S11318901F4FFFE3F98388248394912C6501E89416
S11318A037F833FE2DC0522C8114910471F5552064
S11318B009F468CFB70180E290E00E94A00D5A9429
S11318C0F6CFF801808189830E5F1F4FE4CF280192
S11318D0F2E04F0E511CF801C080D180692D70E0F8
S11318E036FC02C06FEF7FEFC6010E94950D4C01DC
S11318F08201D5CFB70180E290E00E94A00D2A9426
S11319002814190409F0B0F7CECFF60137FC8591FD
S113191037FE81916F01B70190E00E94A00D511034
S11319205A94F1E08F1A9108BFCF843619F08936A2
S113193009F077C0F80137FE6BC060817181828144
S113194093810C5F1F4FF32DFF763F2E97FF09C045
S113195090958095709561957F4F8F4F9F4F6894B8
S113196037F82AE030E0A5010E94D00DC82ECA182D
S11319708C2C432C36FE0CC0E89440F8C91440F477
S113198034FE05C032FC03C0F32DFE7E4F2E892C9D
S113199044FE95C0FE01EC0DF11D8081803309F0F9
S11319A087C0242D297E422E842D8870582E43FC16
S11319B095C040FE8FC09C2C821418F42C0C922CE1
S11319C0981844FE91C0B70180E390E00E94A00DF6
S11319D042FE09C088E790E041FE02C088E590E03D
S11319E0B7010E94A00DC91408F48AC0CA94D12C6E
S11319F09FEFC91AD90ACA0CDB1CF60182916F0148
S1131A00B70190E00E94A00DAC14BD04B1F74FCF14
S1131A1060817181072E000C880B990B0E5F1F4F9C
S1131A2092CFD32CE894D4F82AE030E0853739F10A
S1131A30232D297FD22E8F3601F148F48835A9F061
S1131A40F701868197812B96E2E10C944A0E803748
S1131A5049F08837A9F7D4FE02C06894D2F820E18F
S1131A6030E00DC06894D4F8F6CF34FE03C0822F62
S1131A708660D82E20E132E002C028E030E0F80190
S1131A80D7FE0FC060817181828193810C5F1F4FEB
S1131A90A5010E94D00DC82ECA183D2CE89437F831
S1131AA067CF6081718190E080E00E5F1F4FF0CFBF
S1131AB042FC02C0839478CF8394839475CF842DA1
S1131AC0867809F471CFF6CFB70180E290E00E94E6
S1131AD0A00D83948214C0F3512C73CF522C581848
S1131AE0821408F46ECFF8CF842D867809F47BCF66
S1131AF08BE241FE80E247FC8DE2B70190E071CFBA
S1131B00B70180E390E00E94A00D9A946CCF8FEF10
S1131B109FEF99CFFC010590615070400110D8F7F8
S1131B20809590958E0F9F1F0895FC016150704021
S1131B3001900110D8F7809590958E0F9F1F0895FE
S1131B400F931F93CF93DF93182F092FEB018B81F2
S1131B5081FD09C01FEF0FEF812F902FDF91CF91EF
S1131B601F910F91089582FF14C02E813F818C81B3
S1131B709D81281739073CF4E881F981CF0101964A
S1131B809983888310838E819F8101969F838E839E
S1131B90E3CFE885F985812F0995892BA1F3DACF65
S1131BA0FA01AA27283051F1203181F1E8946F938A
S1131BB06E7F6E5F7F4F8F4F9F4FAF4FB1E03ED030
S1131BC0B4E03CD0670F781F891F9A1FA11D680FCE
S1131BD0791F8A1F911DA11D6A0F711D811D911D01
S1131BE0A11D20D009F468943F912AE0269F112476
S1131BF03019305D3193DEF6CF010895462F4770DA
S1131C00405D4193B3E00FD0C9F7F6CF462F4F7034
S1131C10405D4A3318F0495D31FD4052419302D092
S1131C20A9F7EACFB4E0A695979587957795679538
S1131C30BA95C9F700976105710508959B01AC0138
S1131C400A2E06945795479537952795BA95C9F75F
S1131C50620F731F841F951FA01D08952F923F923A
S1131C604F925F926F927F928F929F92AF92BF92A8
S1131C70CF92DF92EF92FF920F931F93CF93DF9354
S1131C80CDB7DEB7CA1BDB0B0FB6F894DEBF0FBEB1
S1131C90CDBF09942A88398848885F846E847D84FE
S1131CA08C849B84AA84B984C884DF80EE80FD8000
S1131CB00C811B81AA81B981CE0FD11D0FB6F89476
S1111CC0DEBF0FBECDBFED010895F894FFCF37
S1131CCEFCFFFFFF62020000160100000000FF008F
S1131CDE0000000000001A0100001E0100000000B8
S1131CEE0000008000000000000000000000000161
S1131CFE00000000000000000000000200000000D0
S1131D0E00000000000001000400000000000000BC
S1131D1E00009A0400005461736B312042656769B8
S1131D2E6E732E2E2E005461736B312046696E69CC
S1131D3E736865732E2E2E005461736B32204265C8
S1131D4E67696E732E2E2E005461736B32205761A9
S1131D5E6974732E2E2E005461736B322057616B8F
S1131D6E65732055702E2E2E005B4576656E74318C
S1131D7E5D005461736B322046696E6973686573D6
S1131D8E2E2E2E000A25346C643A20000A2E2E2E96
S1131D9E2E2E2E2E2E2E2E2E2E2E2E2E0A002E2EA3
S1131DAE2E4F53205374617274732E2E2E0A0041DB
S1131DBE05300204002B020100230201001302016C
S1131DCE0004016202090201000D02010015020F56
S1131DDE00140015028A02250200005402000001BC
S1131DEE000100250292027F0001002D02960202DC
S1131DFE38024602540262027402540122010002A5
S1131E0E003801808001740254012E01010000D2B9
S1131E1E00010101700252013A01020100F30002B5
S1131E2E0201740254014601030300CE06000001B0
S1131E3E9B02000200000000000000002303570470
S10D1E4ED2020303A402BE02B00294
S9030000FC
